:020000040000FA
:1000000060EF1DF0C96E1200BBEF15F0F4EC11F0BB
:100010009DEC17F0FDD712003FEF1BF0D9CFE5FFA5
:10002000E1CFD9FF00C0E5FF01C0E5FF02C0E5FF59
:1000300003C0E5FF04C0E5FF05C0E5FF06C0E5FF1E
:1000400007C0E5FF08C0E5FF09C0E5FF0AC0E5FFFE
:100050000BC0E5FF0CC0E5FF0DC0E5FF0EC0E5FFDE
:100060000FC0E5FF10C0E5FF11C0E5FF12C0E5FFBE
:1000700013C0E5FF14C0E5FF15C0E5FF16C0E5FF9E
:1000800017C0E5FF18C0E5FF19C0E5FF1AC0E5FF7E
:100090001BC0E5FF1CC0E5FF1DC0E5FF1EC0E5FF5E
:1000A000020EDBCF00F0030EDBCF01F0040EDBCF3E
:1000B00002F0050EDBCF03F0060EDBCF04F0070ED7
:1000C000DBCF05F0080EDBCF06F0090EDBCF07F023
:1000D0000A0EDBCF08F0096A0A6A02C00DF00D5063
:1000E000800A0DE102500401A46F0150A36F00507B
:1000F000A26F040E016EA20E006E800E026E03C08F
:10010000E9FF04C0F3FF0550AAEC1DF00B6E0B5085
:10011000D8B4C4EF03F00B50250A02E0ABEF03F0B4
:100120000C6A0D6A0E6A0F6A106A0A0E116E126A64
:10013000136A146A200E156E1668176A2B0E186E55
:10014000032A02E3044A052A03C0E9FF04C0F3FFBF
:100150000550AAEC1DF0196E250A13E11950E56E41
:100160000250E56E0150E56E0050E56E56EC10F061
:10017000040EE126094A0A2A032A02E3044A052A50
:10018000BED71950300A06E1300E156E032A02E37D
:10019000044A052A03C0E9FF04C0F3FF0550AAEC96
:1001A0001DF02D0A06E1010E146E032A02E3044A33
:1001B000052A03C0E9FF04C0F3FF0550AAEC1DF0B7
:1001C000200A08E1010E176E200E186E032A02E3C2
:1001D000044A052A03C0E9FF04C0F3FF0550AAEC56
:1001E0001DF02B0A06E1010E176E032A02E3044AF2
:1001F000052A03C0E9FF04C0F3FF0550AAEC1DF077
:10020000196E310E195C2BE33A0E195C28E203C01B
:1002100019F004C01AF005C01BF019C0E9FF1AC09C
:10022000F3FF1B50AAEC1DF01C6E300E1C5C11E39A
:100230003A0E1C5C0EE213500A0DF3CF1DF01C5059
:100240001D26D00E1D24136E192A02E31A4A1B2AFA
:10025000E4D719C003F01AC004F01BC005F003C0B6
:10026000E9FF04C0F3FF0550AAEC1DF02E0A2DE1B2
:10027000032A02E3044A052A166A03C019F004C0DF
:100280001AF005C01BF019C0E9FF1AC0F3FF1B509C
:10029000AAEC1DF01C6E300E1C5C11E33A0E1C5CC7
:1002A0000EE216500A0DF3CF1DF01C501D26D00E85
:1002B0001D24166E192A02E31A4A1B2AE4D719C014
:1002C00003F01AC004F01BC005F003C0E9FF04C02E
:1002D000F3FF0550AAEC1DF0196E6C0A07E1010E40
:1002E0000C6E032A02E3044A052A09D01950680A51
:1002F00006E1010E0E6E032A02E3044A052A03C03A
:10030000E9FF04C0F3FF0550AAEC1DF0750A06E1F1
:10031000010E106E032A02E3044A052A03C0E9FF16
:1003200004C0F3FF0550AAEC1DF0196E730A05E135
:10033000010E0D6E200E156E3FD01950780A03E1A4
:10034000100E116E39D01950580A05E1100E116EB9
:10035000010E126E31D01950630A02E1116A2CD0DD
:1003600019506F0A03E1080E116E26D01950660A63
:1003700003E1010E0F6E20D01950640A1DE01950E0
:10038000690A1AE0105005E0FF0E03260422052238
:1003900013D01950E56E0250E56E0150E56E005025
:1003A000E56E56EC10F0040EE126094A0A2A032AEB
:1003B00002E3044A052AA3D60D5021E00650030F9C
:1003C0000D6E000E0720196E000E08201A6E0DC06B
:1003D00006F019C007F01AC008F0FD0E0D26FF0E3A
:1003E00019221A220DC0E9FF19C0F3FF1A5075EC4B
:1003F0001CF00D6EF3CF19F0F4CF1AF0FDD00F50B2
:100400000DE0000E1A6E080E196E100E0D6E040E21
:100410000626000E072208221668EED016680C5039
:1004200023E00650040F0C6E000E07200F6E000E26
:1004300008201B6E0CC006F00FC007F01BC008F0B0
:10044000FC0E0C26FF0E0F221B220CC0E9FF0FC072
:10045000F3FF1B50FBEC1BF00C6EF3CF0FF0F4CF4F
:100460001BF0E9CF1CF067D00E502FE00650020FB2
:100470000E6E000E07201D6E000E08201E6E0EC0B0
:1004800006F01DC007F01EC008F0FE0E0E26FF0E7F
:100490001D221E220EC0E9FF1DC0F3FF1E5034ECCA
:1004A0001DF00E6E0EC00CF00F6A1B6A1C6A115014
:1004B0000A0A03E11050D8B43ED00C500E6E0EC0A4
:1004C0000CF00F6A1B6A1C6A36D00650020F0E6EC3
:1004D000000E07201D6E000E08201E6E0EC006F0D6
:1004E0001DC007F01EC008F0FE0E0E26FF0E1D22D6
:1004F0001E220EC0E9FF1DC0F3FF1E5034EC1DF09C
:100500000E6EF3CF1DF00EC00CF01DC00FF0E86AA8
:100510001DBEFF0E1B6E1C6E11500A0A02E1105028
:100520000AE00C500E6E0F501D6E0EC00CF01DC078
:100530000FF01B6A1C6A040E196E5A0E0D6E800EA7
:100540001A6E1150D8B440D0105013E01150E56E1F
:10055000040EE56E5A0EE56E1C50E56E1B50E56EFE
:100560000F50E56E0C50E56EFCEC0BF0070EE1262B
:1005700012D01150E56E040EE56E5A0EE56E1C5059
:10058000E56E1B50E56E0F50E56E0C50E56EA2EC6B
:1005900014F0070EE12617502FE00DC0E9FF19C037
:1005A000F3FF1A50AAEC1DF02D0A26E0FF0E0D26CF
:1005B00019221A2218C0E5FF0DC0E9FF19C0F3FF88
:1005C0001A5022EC1EF018D00CC0E5FF0DC0E9FF58
:1005D00019C0F3FF1A5022EC1EF00D50010F0C6EE3
:1005E000000E19200E6E000E1A20E56A0CC0E9FFFD
:1005F0000EC0F3FF22EC1EF00DC00CF019C00EF07F
:100600001AC00FF013C010F0105010E00CC0E9FF3A
:100610000EC0F3FF0F50AAEC1DF0176E175006E046
:100620000C2A02E30E4A0F2A1006EED710C013F070
:1006300014501EE109C00CF00AC00EF010C00FF0FB
:100640000F5010E01550E56E0250E56E0150E56E5A
:100650000050E56E56EC10F0040EE1260C4A0E2A0E
:100660000F06EED70CC009F00EC00AF00FC013F051
:1006700016C00CF00DC00DF019C00EF01AC00FF02E
:1006800009C010F00AC015F00DC0E9FF0EC0F3FF5D
:100690000F50AAEC1DF0166E1650D8B43ED00CC008
:1006A00016F0176A161E171E1650171005E00CC01C
:1006B00016F00C06165031E00DC0E9FF0EC0F3FF36
:1006C0000F50AAEC1DF0116E125010E01150E56EA3
:1006D000F1EC1CF0166EE652165004E0DF0E111419
:1006E000166E02D011C016F016C011F01150E56E52
:1006F0000250E56E0150E56E0050E56E56EC10F0CC
:10070000040EE1260D2A02E30E4A0F2A104A152A8A
:100710001350D8B4B9D71306B7D710C009F015C015
:100720000AF014502BE010C00CF015C00DF013C0EF
:100730000EF00E501FE0200EE56E0250E56E0150E7
:10074000E56E0050E56E56EC10F0040EE1260C4A02
:100750000D2A0E06EED70B50E56E0250E56E0150E5
:10076000E56E0050E56E56EC10F0040EE126094AE5
:100770000A2A04D00CC009F00DC00AF0032A02E3D3
:10078000044A052A7FEF00F00AC0F3FF0950E4CFC6
:100790001EF0E4CF1DF0E4CF1CF0E4CF1BF0E4CF5B
:1007A0001AF0E4CF19F0E4CF18F0E4CF17F0E4CF5B
:1007B00016F0E4CF15F0E4CF14F0E4CF13F0E4CF5B
:1007C00012F0E4CF11F0E4CF10F0E4CF0FF0E4CF5B
:1007D0000EF0E4CF0DF0E4CF0CF0E4CF0BF0E4CF5B
:1007E0000AF0E4CF09F0E4CF08F0E4CF07F0E4CF5B
:1007F00006F0E4CF05F0E4CF04F0E4CF03F0E4CF5B
:1008000002F0E4CF01F0E4CF00F0E4CFD9FF120012
:100810003C4E4F20464C4F41543E000000C0E5FF87
:1008200001C0E5FF02C0E5FF03C0E5FF04C0E5FF2E
:1008300005C0E5FF06C0E5FF07C0E5FF08C0E5FF0E
:1008400009C0E5FF04012351D8A422EF06F0040EED
:100850000401275D09E38A82060E275D02E3276B08
:10086000F1D10401272BEED10401275107E181A02A
:10087000E9D18A9281B002D08A82E4D10401275161
:10088000020DF450016EF3CF00F0810E0026040E2D
:10089000012200C0E9FF01C0EAFFEECF00F0EFCF78
:1008A00001F000500110D8B49CD199EC1AF0006E00
:1008B000F3CF01F0F4CF02F0E9CF03F02751040D9C
:1008C000F450056EF3CF04F0230E04260F0E05221C
:1008D00004C0E9FF05C0EAFFEECF04F0EECF05F05B
:1008E000EECF06F0EFCF07F00450005E0550015A3E
:1008F0000650025A0750035A039E3F0E035C08E15C
:10090000FF0E025C05E1FF0E015C02E1FF0E005CE0
:1009100012E204012751020DF450016EF3CF00F0F2
:10092000810E0026040E012200C0E9FF01C0EAFF8B
:10093000EE6AEF6A56D199EC1AF0006EF3CF01F02F
:10094000F4CF02F0E9CF03F004012751040DF45075
:10095000056EF3CF04F0390E0426040E052204C000
:10096000E9FF05C0EAFFEECF06F0EECF07F0EECFCD
:1009700008F0EFCF09F00650005E0750015A08500A
:10098000025A0950035A039E3F0E035C08E1FF0E12
:10099000025C05E1FF0E015C02E1FF0E005CD8B0D5
:1009A00020D199EC1AF0006EF3CF01F0F4CF02F0F1
:1009B000E9CF03F0330E04012725066E076A0F0EF8
:1009C000072206C0E9FF07C0EAFFEFCF06F0065096
:1009D000040DF450076EF3CF06F0086A6E0E06267B
:1009E0000D0E0722000E082206C0F6FF07C0F7FF13
:1009F00008C0F8FF0900F5CF06F00900F5CF07F0B1
:100A00000900F5CF08F00900F5CF09F00950E56EAF
:100A10000850E56E0750E56E0650E56EE56AE56A3A
:100A2000030EE56EE80EE56E0BEC0AF0066EF3CFF2
:100A300007F0F4CF08F0E9CF09F0080EE126E56AE7
:100A4000E56A030EE56EE80EE56E0950E56E0850A6
:100A5000E56E0750E56E0650E56E39EC0FF0066E58
:100A6000F3CF07F0F4CF08F0E9CF09F0080EE12644
:100A70000650002607500122085002220950032286
:100A800004C0E9FF05C0EAFF00C0EEFF01C0EEFFB1
:100A900002C0EEFF03C0EFFF660E2725006E016A5D
:100AA000040E012200C0E9FF01C0EAFFEFCF00F011
:100AB000005034E12751020DF450026EF3CF01F0E3
:100AC000810E0126040E022201C0E9FF02C0EAFFE6
:100AD000EECF01F0EFCF02F00250E56E0150E56E6F
:100AE000E56A020EE56EB1EC16F0016EF3CF02F08E
:100AF000040EE126036A6E0E01260C0E0222000E81
:100B0000032201C0F6FF02C0F7FF03C0F8FF09008F
:100B1000F5CF01F00900F5CF02F019D00050020D19
:100B2000F450036EF3CF00F0046A6E0E00260C0E34
:100B30000322000E042200C0F6FF03C0F7FF04C02A
:100B4000F8FF0900F5CF01F00900F5CF02F004012C
:100B5000AE5134E001C000F002C003F0046A056A3F
:100B6000AEC406F0076A064A072AE86A07BEFF0E07
:100B7000086EE56E0850E56E0750E56E0650E56EAE
:100B80000550E56E0450E56E0350E56E0050E56ECD
:100B90000BEC0AF0006EF3CF03F0F4CF04F0080E74
:100BA000E12600340334006E036A03360450E8443F
:100BB000FE0B03120050016E0350026E0401275118
:100BC000020DF450036EF3CF00F08A0E0026040EDF
:100BD000032200C0E9FF03C0EAFF01C0EEFF02C02C
:100BE000EFFF04012751020DF450016EF3CF00F026
:100BF0008A0E0026040E012200C0E9FF01C0EAFFB0
:100C0000EECF00F0EFCF01F00050011019E000C06E
:100C100024F401C025F427C4ADF4CEEC19F027511B
:100C2000020DF450016EF3CF00F08A0E0026040E80
:100C3000012200C0E9FF01C0EAFF000EEE6AEF6A80
:100C40000401272BE4CF09F0E4CF08F0E4CF07F04C
:100C5000E4CF06F0E4CF05F0E4CF04F0E4CF03F0F6
:100C6000E4CF02F0E4CF01F0E4CF00F01200320054
:100C7000330034003600370039003A003C003E00B3
:100C80003F00410043004500470049004B004D0034
:100C90004F0051005300550058005A005D005F009E
:100CA0006200650067006A006D00700073007600E6
:100CB0007A007D008000840088008B008F00930004
:100CC00097009B00A000A400A900AD00B200B700EF
:100CD000BC00C100C600CC00D100D700DD00E3009D
:100CE000EA00F000F700FD0004010B0113011A01F6
:100CF00022012A0132013B0143014C0155015F01F0
:100D0000680172017C01870192019D01A801B40173
:100D1000C001CC01D901E601F30101020F021D025D
:100D20002C023B024B025B026C027D028E02A0028F
:100D3000B302C602D902ED02020317032D034303D7
:100D40005A0371038A03A203BC03D603F1030D0403
:100D50002904470465048404A304C404E5040805C5
:100D60002B05500575059B05C305EB051506000011
:100D7000000040420F0020A107001516050090D08A
:100D80000300400D03000A8B0200092E020048E810
:100D9000010007B20100A08601001D630100854526
:100DA00001007B2C0100041701006A04010024F4F7
:100DB0000000C7E5000003D9000097CD000050C334
:100DC000000003BA00008EB10000D6A90000C2A244
:100DD0000000409C00003D960000AD900000828B1A
:100DE0000000B286000035820000027E0000127A08
:100DF00000005F760000E37200009B6F0000816CD2
:100E0000000093690000CB66000029640000A8611F
:100E10000000465F0000015D0000D75A0000C7587F
:100E20000000CE560000EB5400001C53000061513E
:100E30000000B84F0000204E0000974C00001E4BF1
:100E40000000B34900005648000005470000C145B6
:100E500000008744000059430000354200001A4159
:100E6000000009400000013F0000013E0000093D74
:100E70000000183C00002F3B00004D3A0000713983
:100E800000009C380000CD370000043700004036D9
:100E9000000082350000C9340000153400006533BD
:100EA0000000BB3200001432000072310000D43068
:100EB000000039300000A32F0000102F0000802E0A
:100EC0000000F42D00006B2D0000E62C0000632CC8
:100ED0000000E32B0000672B0000ED2A0000752ABC
:100EE0000000002A00008E2900001E290000B02802
:100EF000000045280000DC270000752700001027AF
:100F00000000AC2600004B260000EC2500008F25D9
:100F1000000033250000D9240000812400002B2488
:100F20000000D62300008223000031230000E022CD
:100F300000009122000043220000F7210000AC21B4
:100F40000000632100001A210000D32000008D2042
:100F500000004820000004200000C21F0000801F85
:100F60000000401F0000001F0000C21E00004300E0
:100F70002563000043412025640A0000D9CFE5FF26
:100F8000E1CFD9FF00C0E5FF01C0E5FF02C0E5FFEA
:100F900003C0E5FF04C0E5FF05C0E5FF06C0E5FFAF
:100FA00007C0E5FF08C0E5FF09C0E5FF0AC0E5FF8F
:100FB000020EDBCF00F0030EDBCF01F0040EDBCF1F
:100FC00002F0050EDBCF03F00150080A01E0E9D082
:100FD000005004E00050010A01E076D004012651DF
:100FE000025C14E326C401F0046A030E0126D8B0A3
:100FF000042A02C005F0066A0450800FF36E065002
:10100000800FF35C02E10550015C01E2CAD00401EB
:101010002651025C016E0050D8B4036A0150020DE3
:10102000F450056EF3CF04F0810E0426040E052261
:1010300003C006F004C0E9FF05C0EAFF06C0EEFFEA
:10104000EF6A0150040DF450046EF3CF01F0230E4B
:101050000124056E0F0E0420066E99EC1AF0076E3F
:10106000F3CF08F0F4CF09F0E9CF0AF0800E07269D
:10107000840E08221E0E0922000E0A2205C0E9FF76
:1010800006C0EAFF07C0EEFF08C0EEFF09C0EEFF92
:101090000AC0EFFF390E0126040E042299EC1AF063
:1010A000056EF3CF06F0F4CF07F0E9CF08F001C0EA
:1010B000E9FF04C0EAFF05C0EEFF06C0EEFF07C06F
:1010C000EEFF08C0EFFF6DD00050030A01E069D0C9
:1010D0000250140A03E103C0AEF463D004012651A8
:1010E000025C28E326C400F0016A040E0026D8B092
:1010F000012A02C004F0056A0550800FF36E01500A
:10110000800FF35C02E10050045C14E204012651FC
:10111000025C006E035002E1010E036E016A330EA1
:1011200000260F0E012200C0E9FF01C0EAFF03C044
:10113000EFFF37D026C400F0016A00500A0F046E9A
:10114000000E0120056E02C006F0076A0750800FEE
:10115000F36E0550800FF35C02E10450065C21E35E
:101160000E0E0026D8B0012A0750800FF36E0150F2
:10117000800FF35C02E10050065C13E2040126518B
:10118000006E0A0E00260050025C006E016A660EB8
:101190000026040E012200C0E9FF01C0EAFF03C0DF
:1011A000EFFFE4CF0AF0E4CF09F0E4CF08F0E4CF9A
:1011B00007F0E4CF06F0E4CF05F0E4CF04F0E4CF8D
:1011C00003F0E4CF02F0E4CF01F0E4CF00F0E4CF8D
:1011D000D9FF120000C0E5FF01C0E5FF02C0E5FF36
:1011E00003C0E5FF04012D51D8B40CD1A3A81DD034
:1011F000A4A81BD00401B8510401B61905E1D8EC2C
:101200001DF00401B66BFED0000E0401B825006E7F
:10121000016A040E012200C0E9FF01C0EAFFEFCF1E
:10122000B2F4B82BB2C473FFEDD0A3AAEBD0A4AA3A
:10123000E9D071A205D00401B781D8EC1DF0E2D04D
:1012400071A405D00401B783D8EC1DF0DBD071A0E8
:1012500048D074CFB2F42EC400F0016A008EB2C43C
:1012600002F0036A0250001803E10350011801E084
:1012700004D00401B7897196C5D00401B25104E0CD
:10128000B25104012E1929E10401B79971960401A4
:10129000B25103E00401B79702D00401B787B2C48A
:1012A000BBF4B4C4BCF40401B451006E00040401E6
:1012B000BD6F600E0401BC25006E016A000E0122A4
:1012C00000C0E9FF01C0EAFFB2C4EFFFBC2BBC5174
:1012D000800A02E10401BC6B95D00401B7997186C4
:1012E00091D074CFB2F40401B7A921D02EC400F07C
:1012F000016A008EB2C402F0036A0250001803E1D2
:101300000350011801E011D0A39A7198929A040138
:10131000B65104E1736AD8EC1DF007D000C473FF26
:10132000010E0401B86FA3886DD071866BD00401E3
:10133000B2510401BB270401BC510401BD191BE1DA
:101340000401BB510CE1BCC4B4F40401B7B712D022
:10135000A39A7198929A736AD8EC1DF00BD004018D
:10136000B785B7B707D0A39A7198929A010E736E9A
:10137000D8EC1DF047D00401BC510401B51908E1B7
:101380000401B5510401B41903E0D8EC1DF03AD0C2
:10139000B4C400F0016A004A012AE56A800EE56ED5
:1013A0000150E56E0050E56EFCEC12F0006E040E8C
:1013B000E12600500401B36F0401BC190FE1B2C46F
:1013C00000F01F0E00140401BD6F006E020E002419
:1013D000BD6F0401B4510401BD27BD9FBCC400F022
:1013E0000401BC2B016A600E0026000E012200C021
:1013F000E9FF01C0EAFFB2C4EFFFBC51800A02E17D
:101400000401BC6BE4CF03F0E4CF02F0E4CF01F0C1
:10141000E4CF00F01200D9CFE5FFE1CFD9FF00C043
:10142000E5FF01C0E5FF02C0E5FF03C0E5FF04C022
:10143000E5FF05C0E5FF06C0E5FF07C0E5FF020EBA
:10144000DBCF00F0030EDBCF01F0040EDBCF02F0A8
:10145000050EDBCF03F0060EDBCF04F0070EDBCF6B
:1014600005F0080EDBCF06F0090EDBCF07F00050C9
:101470000401766F0150776F0250786F0350796FD7
:10148000045004017A6F05507B6F06507C6F075043
:101490007D6F0401765104017C03F4CF01F0F3CF9A
:1014A00000F000500401956F0150966F04017651D1
:1014B00004017A03F4CF01F0F3CF00F000500401EF
:1014C000936F0150946F0401795104017A03F3CFB3
:1014D00000F00401965100260050966F04017851E7
:1014E00004017B03F3CF01F00150002600500401FA
:1014F000966F0401785104017A03F4CF01F0F3CF21
:1015000000F0040195510026965101220050956F7C
:101510000150966F0401775104017B03F4CF03F06F
:10152000F3CF02F0025000260350012200500401C4
:10153000956F0150966F0401775104017C03F3CF3E
:1015400000F0005004019A6F0401775104017A03FE
:10155000F4CF01F0F3CF00F000500401986F015078
:10156000996F0401765104017D03F3CF00F0005020
:1015700004019E6F0401765104017B03F4CF01F056
:10158000F3CF00F0005004019C6F01509D6F0401E7
:10159000976B04019B6B0401975104019325006E26
:1015A0000401985104019421016E04019951040130
:1015B0009521026E04019A5104019621036E005098
:1015C000936F0150946F0250956F0350966F040112
:1015D0009B5104019325006E04019C510401942148
:1015E000016E04019D5104019521026E04019E517A
:1015F00004019621036E03C0E9FF02C0F4FF01C09D
:10160000F3FF0050E4CF07F0E4CF06F0E4CF05F09D
:10161000E4CF04F0E4CF03F0E4CF02F0E4CF01F034
:10162000E4CF00F0E4CFD9FF120000C0E5FF01C015
:10163000E5FF02C0E5FF03C0E5FF04C0E5FF05C00C
:10164000E5FF06C0E5FF07C0E5FFEDEC1AF0006E10
:101650000A0A0CE00050140A2DE00050640A01E16F
:10166000A4D00050650A01E1A7D0B5D0EDEC1AF086
:10167000006A016EEDEC1AF0036A002603500122A5
:10168000EDEC1AF0026E040E025CD8B0A4D0025049
:10169000020DF450036EF3CF02F08A0E0226040E00
:1016A000032202C0E9FF03C0EAFF00C0EEFF01C051
:1016B000EFFF91D0EDEC1AF0006E050E005CD8B093
:1016C0008AD00050020DF450026EF3CF01F0810E6B
:1016D0000126040E0222EDEC1AF0036E046A01C02A
:1016E000E9FF02C0EAFF03C0EEFFEF6A000E045CF0
:1016F00002E1800E035C07E301C0E9FF02C0EAFFDC
:101700007F0EEE6EEF6A330E0024016E026A0F0E3A
:101710000222EDEC1AF0036E01C0E9FF02C0EAFFFD
:1017200003C0EFFF0050040DF450016EF3CF00F042
:10173000230E0024026E0F0E0120036E99EC1AF0A6
:10174000046EF3CF05F0F4CF06F0E9CF07F0800E7A
:101750000426840E05221E0E0622000E072202C059
:10176000E9FF03C0EAFF04C0EEFF05C0EEFF06C0BC
:10177000EEFF07C0EFFF390E0026040E012299ECA0
:101780001AF0026EF3CF03F0F4CF04F0E9CF05F0C6
:1017900000C0E9FF01C0EAFF02C0EEFF03C0EEFF98
:1017A00004C0EEFF05C0EFFF16D0EDEC1AF0040107
:1017B000266F2DEC1EF00FD026C400F0E56A005015
:1017C000E56E000EE56E0F0EE56E740EE56E29EC0B
:1017D00018F0050EE126E4CF07F0E4CF06F0E4CFE1
:1017E00005F0E4CF04F0E4CF03F0E4CF02F0E4CF5F
:1017F00001F0E4CF00F01200D9CFE5FFE1CFD9FF2F
:1018000000C0E5FF01C0E5FF02C0E5FF03C0E5FF42
:1018100004C0E5FF05C0E5FF06C0E5FF07C0E5FF22
:1018200008C0E5FF09C0E5FF0AC0E5FF0BC0E5FF02
:101830000CC0E5FF0DC0E5FF0EC0E5FF0FC0E5FFE2
:10184000020EDBCF00F0030EDBCF01F0040EDBCF86
:1018500002F0050EDBCF03F0060EDBCF04F0070E1F
:10186000DBCF05F0080EDBCF06F0200E076E086A0E
:1018700006C009F00A6A0B6A0C6AE56AE56AE56A5D
:101880000950E56E0350E56E0250E56E0150E56EBD
:101890000050E56E76EC0DF00D6E080EE126300E70
:1018A0000D263A0E0D5C05E30D500E6E270E0E242C
:1018B0000D6EFF0E07260822E00E07240E6E000EA6
:1018C00008200F6E0EC0E9FF0FC0EAFF0DC0EFFF4A
:1018D0000C50E56E0B50E56E0A50E56E0950E56E52
:1018E0000350E56E0250E56E0150E56E0050E56E66
:1018F00039EC0FF0006EF3CF01F0F4CF02F0E9CF36
:1019000003F0080EE1260050011002100310D8A4C5
:10191000AFD707C000F008C001F004C002F005C056
:1019200003F000C004F001C005F0004A012AE00EF7
:101930000426000E052204C0E9FF05C0EAFFEFCF30
:1019400004F002C0E9FF03C0EAFF04C0EFFF024A4F
:10195000032A000E015C02E1200E005CE2E302C0FB
:10196000E9FF03C0EAFF000EEF6AE4CF0FF0E4CF17
:101970000EF0E4CF0DF0E4CF0CF0E4CF0BF0E4CFA9
:101980000AF0E4CF09F0E4CF08F0E4CF07F0E4CFA9
:1019900006F0E4CF05F0E4CF04F0E4CF03F0E4CFA9
:1019A00002F0E4CF01F0E4CF00F0E4CFD9FF120061
:1019B000A1A29BD0B190A19204012351010A2DE173
:1019C0000401AD5103E18996899414D00401AD510D
:1019D000010A03E1899289900DD00401AD51020AF8
:1019E00003E18A98899C06D00401AD51030A02E103
:1019F0008A96899E04012451FF0804017E6FFF0E20
:101A00000401255504017F6FB36E7E51B26EA19221
:101A1000B180020E0401236F68D004012351020A31
:101A20002DE10401AD5103E18996898414D00401AC
:101A3000AD51010A03E1899289800DD00401AD51B5
:101A4000020A03E18A98898C06D00401AD51030A89
:101A500002E18A96898E04012451FF0804017E6FF9
:101A6000FF0E0401255504017F6FB36E7E51B26EE7
:101A7000A192B180030E0401236F37D004012351DA
:101A8000030A2DE10401AD5103E18996899414D034
:101A90000401AD51010A03E1899289900DD004013E
:101AA000AD51020A03E18A98899C06D00401AD5128
:101AB000030A02E18A96899E04012451FF08040169
:101AC0007E6FFF0E0401255504017F6FB36E7E51BA
:101AD000B26EA192B180040E0401236F06D00401FE
:101AE0002351040A02E10401236B1200D9CFE5FF60
:101AF000E1CFD9FF00C0E5FF01C0E5FF02C0E5FF6F
:101B000003C0E5FF04C0E5FF05C0E5FF06C0E5FF33
:101B100007C0E5FF08C0E5FF09C0E5FF0AC0E5FF13
:101B2000020EDBCF00F0030EDBCF01F0040EDBCFA3
:101B300002F0050EDBCF03F0060EDBCF04F0070E3C
:101B4000DBCF05F0080EDBCF06F0090EDBCF07F088
:101B5000086A045005100610071005E1E968F468EA
:101B6000F368E86847D0096A0750800BE8440A6EBA
:101B70000A501BE104500426053606360736075086
:101B8000035C08E10650025C05E10550015C02E1DE
:101B90000450005C06E2D890073206320532043267
:101BA00004D0092A09C008F0DFD70750035C08E118
:101BB0000650025C05E10550015C02E10450005C46
:101BC00008E30450005E0550015A0650025A0750BF
:101BD000035AD890073206320532043208C009F0A1
:101BE00008060950E2E103C0E9FF02C0F4FF01C0AA
:101BF000F3FF0050E4CF0AF0E4CF09F0E4CF08F09F
:101C0000E4CF07F0E4CF06F0E4CF05F0E4CF04F032
:101C1000E4CF03F0E4CF02F0E4CF01F0E4CF00F032
:101C2000E4CFD9FF1200D9CFE5FFE1CFD9FF00C043
:101C3000E5FF01C0E5FF02C0E5FF03C0E5FF04C00A
:101C4000E5FF05C0E5FF06C0E5FF07C0E5FF020EA2
:101C5000DBCF00F0030EDBCF01F099EC1AF0026E3F
:101C6000F3CF03F0F4CF04F0E9CF05F0E56AE56ABD
:101C70000150E56E0050E56EE56A0F0EE56E420E0E
:101C8000E56E400EE56E0BEC0AF0006EF3CF01F04E
:101C9000F4CF06F0E9CF07F0080EE126E56AE56A21
:101CA000030EE56EE80EE56E0750E56E0650E56E34
:101CB0000150E56E0050E56E39EC0FF0006EF3CF89
:101CC00001F0F4CF06F0E9CF07F0080EE12600504E
:101CD0000224006E01500320016E06500420026EA3
:101CE00007500520036E99EC1AF0046EF3CF05F04F
:101CF000F4CF06F0E9CF07F00050045E0150055A1A
:101D00000250065A0350075A079E3F0E075C08E12F
:101D1000FF0E065C05E1FF0E055C02E1FF0E045CB0
:101D2000E2E2E4CF07F0E4CF06F0E4CF05F0E4CF41
:101D300004F0E4CF03F0E4CF02F0E4CF01F0E4CF0D
:101D400000F0E4CFD9FF120043652025642025640C
:101D50000A0000C0E5FF01C0E5FF02C0E5FF03C0C7
:101D6000E5FF0401B5510401B41901E166D0B5C421
:101D700000F0002A009E016A600E0026000E01227B
:101D800000C0E9FF01C0EAFFEFCFBFF41F0E04015E
:101D9000BF17B5C4BEF4BF510401BE27BE51006ECB
:101DA000020E0024BE6FBE9FEDEC1AF0006E0050D4
:101DB00003E1006A002A01D0006AEDEC1AF0040188
:101DC000BF6FBFC401F0800E0116BFC402F01F0E2A
:101DD000021602C003F002C0BFF4035003E1B4C412
:101DE000B5F43ED000501EE0015025E0EDEC1AF0B5
:101DF000006E0401BF51026E0204BF6F0050420A20
:101E00001AE000504E0A03E1E7EC17F014D000503E
:101E1000460A03E117EC1EF00ED00050490A0BE110
:101E2000FF0009D0B5C4C0F4015003E096EC19F0EE
:101E300002D015EC0BF0BEC4B5F404012A51040124
:101E40002B1906E00401B65103E1E2EC10F008D0D2
:101E500092BA06D00401B65103E172B2D8EC1DF07B
:101E6000E4CF03F0E4CF02F0E4CF01F0E4CF00F0E0
:101E70001200D9CFE5FFE1CFD9FF00C0E5FF01C0D7
:101E8000E5FF02C0E5FF03C0E5FF04C0E5FF05C0B4
:101E9000E5FF06C0E5FF07C0E5FF08C0E5FF09C094
:101EA000E5FF0AC0E5FF0BC0E5FF0CC0E5FF0DC074
:101EB000E5FF020EDBCF00F0030EDBCF01F0040ED6
:101EC000DBCF02F0050EDBCF03F0060EDBCF04F014
:101ED000070EDBCF05F0080EDBCF06F0090EDBCFD7
:101EE00007F0086A096A0A6A0B6A200E0C6E035032
:101EF000800BE8440D6E0050002601360236033692
:101F00000850082609360A360B360D50D8A408802A
:101F100007500B5C08E106500A5C05E10550095CBE
:101F200002E10450085C09E30450085E0550095AB8
:101F300006500A5A07500B5A00800C040D6E0DC053
:101F40000CF00D50D4E103C0E9FF02C0F4FF01C062
:101F5000F3FF0050E4CF0DF0E4CF0CF0E4CF0BF032
:101F6000E4CF0AF0E4CF09F0E4CF08F0E4CF07F0C3
:101F7000E4CF06F0E4CF05F0E4CF04F0E4CF03F0C3
:101F8000E4CF02F0E4CF01F0E4CF00F0E4CFD9FFDA
:101F9000120000C0E5FF01C0E5FF03C0E5FF04C07B
:101FA000E5FF05C0E5FF06C0E5FF07C0E5FF08C087
:101FB000E5FF09C0E5FF0AC0E5FF0BC0E5FFA5C4CA
:101FC00000F0A6C401F00401A53F01D0A62B0050EB
:101FD000E56ECAEC1DF0E652076E046A056A066AF1
:101FE000A5C400F0A6C401F00401A53F01D0A62BB2
:101FF0000050E56ECAEC1DF0E6520B6A0A6E086AE4
:102000000850041205120A5006120B500712A5C4FC
:1020100000F0A6C401F00401A53F01D0A62B00509A
:10202000E56ECAEC1DF0E652036E006A03C001F0D3
:10203000E86A03BEFF0E086E096E005004120150DC
:1020400005120850061209500712A5C400F0A6C4D4
:1020500001F00401A53F01D0A62B0050E56ECAECAB
:102060001DF0E652016A0412015005120612071211
:1020700007C0E9FF06C0F4FF05C0F3FF0450E4CF3A
:102080000BF0E4CF0AF0E4CF09F0E4CF08F0E4CF9E
:1020900007F0E4CF06F0E4CF05F0E4CF04F0E4CF9E
:1020A00003F0E4CF01F0E4CF00F01200D9CFE5FF58
:1020B000E1CFD9FF00C0E5FF01C0E5FF02C0E5FFA9
:1020C00003C0E5FF04C0E5FF05C0E5FF06C0E5FF6E
:1020D00007C0E5FF020EDBCF00F0030EDBCF01F0FF
:1020E000040EDBCF02F0050EDBCF03F002C006F0DA
:1020F0000650046E800A33E100C0E9FF01C0F3FF1F
:10210000025075EC1CF0056EF3CF06F0F4CF07F02B
:1021100003C0E5FF05C0E9FF06C0F3FF075022EC4E
:102120001EF000C0E9FF01C0F3FF025075EC1CF087
:10213000056EF3CF06F0F4CF07F0052A02E3064A56
:10214000072A05C0E5FF06C0F4FF07C0F6FF00C080
:10215000E9FF01C0F3FF0250BBEC1DF020D004C02A
:1021600000F000AA1CD0007A0050046E04E1035075
:1021700063EC1EF014D00450010A04E1035002EC99
:1021800000F00DD004500F0A04E1035069EC1AF07E
:1021900006D004500E0A03E1035079EC1EF0E4CFA0
:1021A00007F0E4CF06F0E4CF05F0E4CF04F0E4CF8D
:1021B00003F0E4CF02F0E4CF01F0E4CF00F0E4CF8D
:1021C000D9FF120000C0E5FF01C0E5FF02C0E5FF36
:1021D00003C0E5FF72A277D01BEC1CF0006E00502C
:1021E00005E104012B6B04012A6B6DD02BC401F0B7
:1021F000005001261BEC1CF0026E00060250230A60
:102200001FE1010E005CD8A05CD01BEC1CF0036E3B
:10221000690A03E138EC1AF054D00350720A03E162
:10222000D8EC1DF04ED00350730A01E04AD0928AD8
:102230007186A38AA398745074507198718841D0A4
:102240000250430A05E00250420A01E03AD001D0B0
:10225000008E0401B86B00C0B9F400500401006F97
:102260000401B82B04012B51011814E01BEC1CF0E5
:10227000006E0401B927000E0401B825026E036A3E
:10228000040E032202C0E9FF03C0EAFF00C0EFFF13
:10229000B82BE8D7000E0401B825006E026A040EC0
:1022A00002220401B91D036E032A00C0E9FF02C027
:1022B000EAFF03C0EFFF0401B82BB8C4B6F4040171
:1022C000B06B01C02BF4E4CF03F0E4CF02F0E4CF15
:1022D00001F0E4CF00F01200D9CFE5FFE1CFD9FF44
:1022E00000C0E5FF01C0E5FF02C0E5FF03C0E5FF58
:1022F00004C0E5FF05C0E5FF06C0E5FF020EDBCF29
:1023000000F0030EDBCF01F0040EDBCF02F0050E70
:10231000DBCF03F003C004F0056A0350D8B453D0F8
:1023200000C0E9FF01C0F3FF0250AAEC1DF0066EE9
:10233000430A03E1010E056E038E0406002A02E340
:10234000014A022AA39A7198929AA398A4A8FED748
:102350007280736A0000A4A8FED7729003C073FF56
:102360000000A4A8FED7055005E0420E736E0324BA
:10237000056E05D0620E736E620E0324056E04C0F6
:1023800003F0035015E00000A4A8FED700C0E9FF49
:1023900001C0F3FF0250AAEC1DF0046E04C073FFED
:1023A000045005260306002A02E3014A022AE9D75F
:1023B0000000A4A8FED7051C736E732A0000A4A811
:1023C000FED7D8EC1DF0E4CF06F0E4CF05F0E4CF63
:1023D00004F0E4CF03F0E4CF02F0E4CF01F0E4CF67
:1023E00000F0E4CFD9FF120000C0E5FF01C0E5FF17
:1023F00002C0E5FF03C0E5FF05C0E5FF59EC1EF094
:102400000401696B686B676B666B0401AE6B899640
:1024100089948988929692949298899289908A8ACE
:1024200092929290939A8A98899C8B849398929C8A
:1024300094948A96899E8B809396929E94900401A0
:10244000236BB16AB19AB182A282B190A192A082AB
:102450009380810E006E0F0E016E0F0E036E380E0C
:102460000026035001220F0E036E800E005E035003
:10247000015A810E026E0F0E036E0F0E056E380E9E
:102480000226055003220F0E056E800E025E0550D7
:10249000035A02C0E9FF03C0EAFFEFCF02F0029047
:1024A00000C0E9FF01C0EAFF02C0EFFF93928A82F9
:1024B0005FEC16F040EC1EF099EC1AF0F3CF01F04F
:1024C000F4CF02F0E9CF03F0880F04016A6F130E16
:1024D00001206B6F000E02206C6F000E03206D6FE9
:1024E000E4CF05F0E4CF03F0E4CF02F0E4CF01F055
:1024F000E4CF00F01200D9CFE5FFE1CFD9FF00C053
:10250000E5FF01C0E5FF02C0E5FF03C0E5FF04C031
:10251000E5FF05C0E5FF06C0E5FF07C0E5FF020EC9
:10252000DBCF00F0030EDBCF01F0040EDBCF02F0B7
:10253000050EDBCF03F02BC42CF404012A51040157
:102540002C5F2C51046E04042C6F03C004F0056A48
:10255000030E0426D8B0052A2CC406F0076A0750DB
:10256000800FF36E0550800FF35C02E10450065CAF
:1025700002E2E8682ED0020E035C02E2E86A29D08B
:1025800003060350E56EE5EC18F0E652046A0350CA
:10259000045C14E204500024056EE86A0120066E13
:1025A000E86A022005C0E9FF06C0F3FFAAEC1DF0AF
:1025B000042AE56EE5EC18F0E652E9D72BC42CF4BA
:1025C00004012A5104012C5F2C51006E00042C6F71
:1025D000E86AE4CF07F0E4CF06F0E4CF05F0E4CFFB
:1025E00004F0E4CF03F0E4CF02F0E4CF01F0E4CF55
:1025F00000F0E4CFD9FF1200D9CFE5FFE1CFD9FF3A
:1026000000C0E5FF01C0E5FF02C0E5FF03C0E5FF34
:1026100004C0E5FF05C0E5FF06C0E5FF020EDBCF05
:1026200000F0030EDBCF01F0040EDBCF02F0050E4D
:10263000DBCF03F0D88001AED890046A0436045092
:1026400007E0011C066E001C056E054A062A04D030
:1026500000C005F001C006F0D88003AED89007E3B3
:10266000031C016E021C006E004A012A04D002C045
:1026700000F003C001F00150E56E0050E56E065019
:10268000E56E0550E56E05EC15F0006EF3CF01F038
:10269000040EE12604500AE0011C036E001C026EC9
:1026A000024A032A03C0F3FF025003D001C0F3FF24
:1026B0000050E4CF06F0E4CF05F0E4CF04F0E4CF1F
:1026C00003F0E4CF02F0E4CF01F0E4CF00F0E4CF78
:1026D000D9FF1200D9CFE5FFE1CFD9FF00C0E5FF58
:1026E00001C0E5FF02C0E5FF03C0E5FF04C0E5FF50
:1026F00005C0E5FF020EDBCF00F0030EDBCF01F0DB
:10270000040EDBCF02F0050EDBCF03F0A5C404F00E
:10271000A6C405F00401A53F01D0A62B0350E56E29
:102720000450E56EC3EC1AF0E652E652A5C404F07C
:10273000A6C405F00401A53F01D0A62B0250056EEA
:10274000E56E0450E56EC3EC1AF0E652E652A5C4FD
:1027500004F0A6C405F00401A53F01D0A62B01504A
:10276000E56E0450E56EC3EC1AF0E652E652A5C4DD
:1027700004F0A6C405F00401A53F01D0A62B00502B
:10278000E56E0450E56EC3EC1AF0E652E652E4CF73
:1027900005F0E4CF04F0E4CF03F0E4CF02F0E4CF9F
:1027A00001F0E4CF00F0E4CFD9FF1200D9CFE5FF6C
:1027B000E1CFD9FF00C0E5FF01C0E5FF02C0E5FFA2
:1027C00003C0E5FF04C0E5FF05C0E5FF06C0E5FF67
:1027D000020EDBCF00F0030EDBCF01F0040EDBCFE7
:1027E00002F00401AF5119E1C9EC0FF0036EF3CF11
:1027F00004F0F4CF05F0E9CF06F003C0E5FF04C014
:10280000F4FF05C0F6FF06C0F7FF00C0E9FF01C0F6
:10281000F3FF025099EC1DF01ED00401AF51010AE4
:102820001AE100C0E9FF01C0F3FF0250FBEC1BF00E
:10283000006EF3CF01F0F4CF02F0E9CF03F00350C4
:10284000E56E0250E56E0150E56E0050E56E6AECF3
:1028500013F0040EE126E4CF06F0E4CF05F0E4CF58
:1028600004F0E4CF03F0E4CF02F0E4CF01F0E4CFD2
:1028700000F0E4CFD9FF120000C0E5FF01C0E5FF82
:1028800002C0E5FF5EEC1EF0006E0050D8B453D0DD
:10289000DAEC1BF0006E800E005C0EE300380F0BCC
:1028A000016E070E01140401336F0F0E00140401B2
:1028B000C36F0401326B3FD004013351040A04E0BA
:1028C00004013351050A10E1E56A0050E56E040188
:1028D000C351E56E04013351E56EBEEC07F0040E02
:1028E000E1260F0E336F27D0070E0401335D23E27C
:1028F00032C401F00401322B026A490E0126040E93
:10290000022201C0E9FF02C0EAFF00C0EFFF32511E
:10291000020A11E104014A51E56E4951E56E0401D4
:10292000C351E56E04013351E56EBEEC07F0040EB1
:10293000E1260F0E336FE4CF02F0E4CF01F0E4CFD5
:1029400000F01200D9CFE5FFE1CFD9FF00C0E5FFCD
:1029500001C0E5FF02C0E5FF03C0E5FF04C0E5FFDD
:1029600005C0E5FF06C0E5FF020EDBCF00F0030E59
:10297000DBCF01F0040EDBCF02F0050EDBCF03F05E
:10298000060EDBCF04F0070EDBCF05F0080EDBCF21
:1029900006F0D88003AED89015E306500A0A12E17B
:1029A00004C0E9FF05C0EAFF2D0EEF6E044A052AB8
:1029B000031E021E011E006C05E1012A03E1022A2A
:1029C000D8B4032A0650E56E0550E56E0450E56E56
:1029D0000350E56E0250E56E0150E56E0050E56E65
:1029E000FCEC0BF0070EE126E4CF06F0E4CF05F097
:1029F000E4CF04F0E4CF03F0E4CF02F0E4CF01F041
:102A0000E4CF00F0E4CFD9FF1200D9CFE5FFE1CF4A
:102A1000D9FF00C0E5FF01C0E5FF02C0E5FF03C02C
:102A2000E5FF04C0E5FF05C0E5FF06C0E5FF020EB7
:102A3000DBCF00F0030EDBCF01F0040EDBCF02F0A2
:102A4000050EDBCF03F0046A056A0350800BE844EF
:102A5000066E065011E10250022603360350015C57
:102A600002E10250005C04E2D8900332023204D04A
:102A7000052A05C004F0E9D70350015C02E10250C9
:102A8000005C04E30250005E0350015AD890033208
:102A9000023204C005F004060550EEE101C0F3FF68
:102AA0000050E4CF06F0E4CF05F0E4CF04F0E4CF2B
:102AB00003F0E4CF02F0E4CF01F0E4CF00F0E4CF84
:102AC000D9FF1200D9CFE5FFE1CFD9FF00C0E5FF64
:102AD00001C0E5FF02C0E5FF03C0E5FF020EDBCF4A
:102AE00000F0030EDBCF01F0040EDBCF02F0050E89
:102AF000DBCF03F00350E56E0250E56E0150E56E4A
:102B00000050E56EE56AE56AE56A040EE56E0BECD9
:102B10000AF0006EF3CF01F0F4CF02F0E9CF03F03A
:102B2000080EE1260350E56E0250E56E0150E56E99
:102B30000050E56E030EE56ED00EE56E900EE56E6C
:102B4000000EE56A39EC0FF0006EF3CF01F0080ECD
:102B5000E126FF0E002601220150B06E0050AF6E3C
:102B6000E4CF03F0E4CF02F0E4CF01F0E4CF00F0D3
:102B7000E4CFD9FF1200D8CFE5FFE0CFE5FFE56E47
:102B8000F3CFE5FFF4CFE5FFE9CFE5FFEACFE5FFBF
:102B9000FACFE5FFFBCFE5FF00C0E5FF01C0E5FF91
:102BA000040128510401706F040129510401716F5F
:102BB000D6506E6FD7506F6FF2A417D028C400F0B4
:102BC00029C401F00050010F0401286F000E0120FC
:102BD000296FF29428510401706F040129510401F6
:102BE000716FD6506E6FD7506F6FD8EC0CF0E4CF8A
:102BF00001F0E4CF00F0E4CFFBFFE4CFFAFFE4CF35
:102C0000EAFFE4CFE9FFE4CFF4FFE4CFF3FFE450C1
:102C1000E4CFE0FFE4CFD8FF100000C0E5FF01C023
:102C2000E5FF02C0E5FF03C0E5FFB5C400F0016A9F
:102C3000C0C402F0036A0250005E0350015AE56A04
:102C4000800EE56E0150E56E0050E56EFCEC12F072
:102C5000006E040EE1260006C0C401F0430E69ECCC
:102C60001AF0200E69EC1AF0005020E0600E0124EA
:102C7000026E036A000E032202C0E9FF03C0EAFFEE
:102C8000EFCF02F0E56A0250E56E000EE56E3B0EF6
:102C9000E56EC80EE56E29EC18F0050EE126012A56
:102CA0000150800A01E1016A0006DED7E4CF03F09B
:102CB000E4CF02F0E4CF01F0E4CF00F0120000C056
:102CC000E5FF01C0E5FF02C0E5FF03C0E5FF05C069
:102CD000E5FF8B8C948E820E006E0F0E016E0F0E30
:102CE000036E380E0026035001220F0E036E800E75
:102CF000005E0350015A820E026E0F0E036E0F0E1D
:102D0000056E380E0226055003220F0E056E800E4A
:102D1000025E0550035A02C0E9FF03C0EAFFEFCF8D
:102D200002F0029E00C0E9FF01C0EAFF02C0EFFF0F
:102D3000AC84AB9CAB98AB88AB969D8A9F9AAB8ECC
:102D4000B886B89A010EB06EFF0EAF68E4CF05F0FA
:102D5000E4CF03F0E4CF02F0E4CF01F0E4CF00F0E1
:102D60001200D9CFE5FFE1CFD9FF00C0E5FF01C0D8
:102D7000E5FF02C0E5FF03C0E5FF020EDBCF00F078
:102D8000030EDBCF01F0040EDBCF02F0050EDBCF2C
:102D900003F000500401A76F0150A86F0250040116
:102DA000A96F0350AA6F0401A7510401A903F4CF2E
:102DB00001F0F3CF00F000500401AB6F0150AC6F95
:102DC0000401A7510401AA03F3CF00F00401A851A4
:102DD0000401A903F3CF01F0015000260401AC5116
:102DE00000260050AC6FACC4F3FFAB51E4CF03F04E
:102DF000E4CF02F0E4CF01F0E4CF00F0E4CFD9FF5C
:102E00001200D9CFE5FFE1CFD9FF00C0E5FF01C037
:102E1000E5FF02C0E5FF03C0E5FF04C0E5FF020EC9
:102E2000DBCF00F0030EDBCF01F0040EDBCF02F0AE
:102E30000401AF5111E104EC1AF0036EF3CF04F07A
:102E400003C0E5FF04C0F4FF00C0E9FF01C0F3FFC9
:102E50000250F4EC1DF016D00401AF51010A12E14A
:102E600000C0E9FF01C0F3FF025034EC1DF0006E1A
:102E7000F3CF01F00150E56E0050E56EA8EC18F0BC
:102E8000E652E652E4CF04F0E4CF03F0E4CF02F0E0
:102E9000E4CF01F0E4CF00F0E4CFD9FF1200A40E9C
:102EA000F66E3C0EF76E000EF86E0900F550056EDA
:102EB0000900F550066E04E1056702D09CEF17F09B
:102EC0000900F550006E0900F550016E0900F5503B
:102ED000026E09000900F550E96E0900F550EA6E2E
:102EE000090009000900F550036E0900F550046E51
:102EF00009000900F6CF07F0F7CF08F0F8CF09F086
:102F000000C0F6FF01C0F7FF02C0F8FF035002E166
:102F1000045007E00900F550EE6E0306F8E20406DF
:102F2000F9D707C0F6FF08C0F7FF09C0F8FF05068C
:102F300001E206065BEF17F0120000C0E5FF01C0DA
:102F4000E5FF02C0E5FF03C0E5FFA9EC0EF00EECC3
:102F500004F03CEC14F099EC1AF0006EF3CF01F0A1
:102F6000F4CF02F0E9CF03F004016A51005E6B5127
:102F7000015A6C51025A6D51035A039E3F0E035C75
:102F800008E1FF0E025C05E1FF0E015C02E1FF0EAD
:102F9000005C14E299EC1AF0F3CF01F0F4CF02F0E8
:102FA000E9CF03F0880F04016A6F130E01206B6FE5
:102FB000000E02206C6F000E03206D6FE4CF03F053
:102FC000E4CF02F0E4CF01F0E4CF00F0120000C043
:102FD000E5FF01C0E5FF02C0E5FFEDEC1AF0006E71
:102FE000EDEC1AF0016ED00E00260A0E005C05E32F
:102FF0000050026EF90E0224006ED00E01260A0E59
:10300000015C05E30150026EF90E0224016E080E08
:10301000005C03E2100E015CD8B014D00038F00B55
:103020000124006E016A5CEC19F0026E025002E0AD
:10303000010E016E0150010A05E00050E56EAAEC98
:103040001CF0E652E4CF02F0E4CF01F0E4CF00F050
:103050001200D9CFE5FFE1CFD9FF00C0E5FF01C0E5
:10306000E5FF02C0E5FF020ED924006E000EDA2053
:10307000016E800E026E030E0026000E0122022257
:103080000250E56E0150E56E0050E56E040EDBCF98
:10309000E5FF030EDBCFE5FF020EDBCFE5FF04010A
:1030A0003751E56E3651E56E3551E56E0EEC00F0A8
:1030B000006EF3CF01F0090EE12601C0F3FF0050CE
:1030C000E4CF02F0E4CF01F0E4CF00F0E4CFD9FF89
:1030D0001200D9CFE5FFE1CFD9FF00C0E5FF01C065
:1030E000E5FF02C0E5FF03C0E5FF020EDBCF00F005
:1030F000030EDBCF01F0040EDBCF02F00401AF5171
:103100000DE108EC1DF0036E03C0E5FF00C0E9FF10
:1031100001C0F3FF025022EC1EF00FD00401AF51AA
:10312000010A0BE100C0E9FF01C0F3FF0250AAEC65
:103130001DF0E56EB4EC1BF0E652E4CF03F0E4CFF3
:1031400002F0E4CF01F0E4CF00F0E4CFD9FF1200A9
:10315000D9CFE5FFE1CFD9FF00C0E5FF01C0E5FF12
:1031600002C0E5FF03C0E5FF020EDBCF00F0030E57
:10317000DBCF01F0A5C402F0A6C403F00401A53F13
:1031800001D0A62B0150E56E0250E56EC3EC1AF09B
:10319000E652E652A5C402F0A6C403F00401A53F1E
:1031A00001D0A62B0050E56E0250E56EC3EC1AF07C
:1031B000E652E652E4CF03F0E4CF02F0E4CF01F0B0
:1031C000E4CF00F0E4CFD9FF1200D9CFE5FFE1CF83
:1031D000D9FF00C0E5FF01C0E5FF02C0E5FF03C065
:1031E000E5FF04C0E5FF020EDBCF00F02AC401F0CA
:1031F000026A014A022A2BC403F0046A0150031830
:1032000003E10250041801E001D00ED0000E0401C9
:103210002A25016E026A010E022201C0E9FF02C0E6
:10322000EAFF00C0EFFF2A2BE4CF04F0E4CF03F065
:10323000E4CF02F0E4CF01F0E4CF00F0E4CFD9FF17
:103240001200D9CFE5FFE1CFD9FF00C0E5FF01C0F3
:10325000E5FF02C0E5FF03C0E5FF020EDBCF00F093
:10326000016AC0C402F0036A025000260350012222
:10327000E56A800EE56E0150E56E0050E56EFCECEF
:1032800012F0006EF3CF01F0040EE126600E00266E
:10329000000E012200C0E9FF01C0EAFFEFCF00F0FD
:1032A0000050E4CF03F0E4CF02F0E4CF01F0E4CF2C
:1032B00000F0E4CFD9FF120000C0E5FF01C0E5FF38
:1032C00002C0E5FF010E006EEDEC1AF0016E01C0C8
:1032D00002F0015023E00050E56ECAEC1DF0016ED3
:1032E000E652015010E10A0E005C0BE20A0E006E7D
:1032F000E56ECAEC1DF0016EE652015004E1E8688B
:103300000ED0E8680CD00150021802E0E86807D03F
:10331000002A1B0E005CD8E3E86801D0E86AE4CF1D
:1033200002F0E4CF01F0E4CF00F0120000C0E5FFAE
:1033300001C0E5FFEDEC1AF0006E4C0A03E1EDEC84
:103340001AF027D00050450A24E1000EE56E0F0E5A
:10335000E56E6E0EE56E29EC18F0030EE12670ECBA
:103360001EF0006E00C001F0000601500FE0EDEC11
:103370001AF0E56AE56E000EE56E0F0EE56E700E52
:10338000E56E29EC18F0050EE126ECD70A0E69EC83
:103390001AF0E4CF01F0E4CF00F01200020E0401B5
:1033A000236F03C0E5FFF2CF03F0F29E0401AD519D
:1033B00003E18986899414D00401AD51010A03E127
:1033C000898289900DD00401AD51020A03E18A88F7
:1033D000899C06D00401AD51030A02E18A86899EC8
:1033E00004012451FF0804017E6FFF0E04012555DE
:1033F00004017F6FB36E7E51B26EA192B18003BEA5
:10340000F28EE4CF03F0120000C0E5FF01C0E5FF3B
:1034100002C0E5FF03C0E5FFA5C400F0A6C401F0AB
:103420000401A53F01D0A62B0050E56ECAEC1DF0AB
:10343000E652036E026AA5C400F0A6C401F00401BE
:10344000A53F01D0A62B0050E56ECAEC1DF0E65258
:10345000016A02120150031203C0F3FF0250E4CFCD
:1034600003F0E4CF02F0E4CF01F0E4CF00F012006B
:1034700004012A6B04012B6B04012C69928A899A3E
:10348000928A766A3F0E756E7086728A7284728C2A
:103490007290718C718E0401B76B0401B16B0401E1
:1034A000B46B0401B56B0401B66B000EE56ACAEC9F
:1034B0001DF004012E6FE652A598A59A010E040195
:1034C0002D6F0401356B366B2F0E376FD8EC1DF066
:1034D000120000C0E5FF01C0E5FF02C0E5FF006E7D
:1034E000000E04012F25016E026A0F0E022201C098
:1034F000E9FF02C0EAFF00C0EFFF220E2F5DD8A057
:103500002F2B00500A0A0EE104012F51E56E800EA8
:10351000E56E0F0EE56E000EE56E7BEC12F0040E0C
:10352000E1262F6BE4CF02F0E4CF01F0E4CF00F00E
:103530001200040128510401746F0401295104018F
:10354000756FD650726FD750736F7451040128197C
:1035500005E104017551040129190CE00401285109
:103560000401746F040129510401756FD650726F04
:10357000D750736F75C4E9FF74C4F4FF73C4F3FFCD
:10358000040172511200D9CFE5FFE1CFD9FF00C08D
:10359000E5FF01C0E5FF020EDBCF00F0030EDBCF3D
:1035A00001F0F29EF29C01C0A8FF00C0A9FFA69EF8
:1035B000A69CA684550EA76EAA0EA76EA682F28EB2
:1035C000F28CA694A6A202D00000FCD7E4CF01F0B2
:1035D000E4CF00F0E4CFD9FF120000C0E5FF01C046
:1035E000E5FF0401B5510401BE1905E00401B55120
:1035F0000401B41902E1E86A15D0B5C400F0040171
:10360000B52B016A600E0026000E012200C0E9FF02
:1036100001C0EAFFEFCF00F0B551800A02E10401DA
:10362000B56B0050E4CF01F0E4CF00F0120000C011
:10363000E5FF01C0E5FF9EAA1DD0ABA208D0AE50A9
:103640000000AE50AB98AB880401C12B13D0ABA4E3
:1036500003D00401C22B0ED0000E04013025006EF1
:10366000016A020E012200C0E9FF01C0EAFFAECFED
:10367000EFFF302BE4CF01F0E4CF00F01200D8CF01
:10368000E5FFE0CFE5FFE56EF3CFE5FFF4CFE5FF23
:10369000E9CFE5FFEACFE5FFFACFE5FFFBCFE5FF96
:1036A000EAEC08F06AEC1EF0E4CFFBFFE4CFFAFF8F
:1036B000E4CFEAFFE4CFE9FFE4CFF4FFE4CFF3FF88
:1036C000E450E4CFE0FFE4CFD8FF100000C0E5FFF6
:1036D00067EC1EF00401896B806B8983006A89B3F3
:1036E000002A0050010BE844F46E8051FD0BF410E9
:1036F000806FD58ED59CD59AD588D596D594D58210
:10370000D580F28AF184D08EF28EF28CBA80FF0ED0
:10371000BB68BA84E4CF00F0120000C0E5FF02C02D
:10372000E5FF0401C25103E10401C15118E0C1C425
:1037300000F0C2C402F0E56A0050E56EE56A02508E
:10374000E56E000EE56E1D0EE56E480EE56E29EC89
:1037500018F0070EE1260401C26B0401C16BE4CF2F
:1037600002F0E4CF00F01200D9CFE5FFE1CFD9FF9E
:1037700000C0E5FF01C0E5FF02C0E5FF020EDBCFA0
:1037800000F0A5C401F0A6C402F00401A53F01D0D9
:10379000A62B0050E56E0150E56EC3EC1AF0E65220
:1037A000E652E4CF02F0E4CF01F0E4CF00F0E4CF42
:1037B000D9FF120001C0E5FF02C0E5FF03C0E5FF2D
:1037C000F2CF03F0F29E000E04013125016E026A71
:1037D000020E022201C0E9FF02C0EAFFEFCF01F0B2
:1037E00003BEF28EE4CF03F0312B0150E4CF02F0A0
:1037F000E4CF01F01200E8AE0AD0F3CFEAFFEE50BA
:10380000EECFF3FFEECFF4FFEECFE9FF1200E8BCFE
:1038100080EF1EF0E9CFF6FFF3CFF7FFF86E090057
:10382000F5500900F5CFF3FF0900F5CFF4FF0900CB
:10383000F5CFE9FF120000C0E5FF01C0E5FF04017C
:103840002A5104012B1902E1E86A0FD0000E04018D
:103850002B25006E016A010E012200C0E9FF01C0A4
:10386000EAFFEFCF00F02B2B0050E4CF01F0E4CFC4
:1038700000F01200F2CFEAFFF29EA69EA69CA6845C
:10388000E9CFA9FFF3CFAAFFE4CFA8FF49EC1EF0D0
:10389000F4CFA8FF49EC1EF0F6CFA8FF49EC1EF0CC
:1038A000F7CFA8FF49EC1EF0A694EABEF28E1200F4
:1038B000F2CFF6FFF29EA69EA69CE9CFA9FFF3CF1A
:1038C000AAFFA680A850A94AAA2AA680A8CFF3FFDB
:1038D000A94AAA2AA680A8CFF4FFA94AAA2AA680A4
:1038E000A8CFEAFFF6BEF28E1200E8AE08D0F3CF02
:1038F000EAFFEE50EECFF3FFEECFF4FF1200E8BC8C
:1039000088EF1EF0E9CFF6FFF3CFF7FFF86E09005E
:10391000F5500900F5CFF3FF0900F5CFF4FF1200D1
:10392000F2CFEAFFF29EA69EA69CA684E9CFA9FF4D
:10393000F3CFAAFFE4CFA8FF49EC1EF0F4CFA8FF15
:1039400049EC1EF0F6CFA8FF49EC1EF0A694EABEA3
:10395000F28E1200D9CFE5FFE1CFD9FF00C0E5FF1D
:10396000020EDBCF00F000C02EF40050E56E000E1A
:10397000E56AC3EC1AF0E652E652E4CF00F0E4CF79
:10398000D9FF1200F2CFF6FFF29EA69EA69CE9CFC9
:10399000A9FFF3CFAAFFA680A850A94AAA2AA68009
:1039A000A8CFF3FFA94AAA2AA680A8CFF4FFF6BEA3
:1039B000F28E120000C0E5FF01C0E5FF600E0401B9
:1039C000B525006E016A000E012200C0E9FF01C0AA
:1039D000EAFFEFCF00F00050E4CF01F0E4CF00F0B9
:1039E0001200D9CFE5FFE1CFD9FF00C0E5FF020EFD
:1039F000DBCF00F0610E005C05E37B0E005C02E2B1
:103A0000010E01D0E86AE4CF00F0E4CFD9FF120044
:103A100000C0E5FF01C0E5FFA5C400F0A6C401F0A9
:103A20000401A53F01D0A62B0050E56ECAEC1DF0A5
:103A3000E652E4CF01F0E4CF00F01200D9CFE5FF69
:103A4000E1CFD9FF00C0E5FF020EDBCF00F000C0E0
:103A50002DF4005004E1D8EC1DF0A39AA398E4CF14
:103A600000F0E4CFD9FF1200E8AE06D0F3CFEAFFB2
:103A7000EE50EECFF3FF1200E8BC7EEF1EF0E9CF70
:103A8000F6FFF3CFF7FFF86E0900F5500900F5CF08
:103A9000F3FF1200F2CFEAFFF29EA69EA69CA68438
:103AA000E9CFA9FFF3CFAAFFE4CFA8FF49EC1EF0AE
:103AB000F4CFA8FF49EC1EF0A694EABEF28E1200E5
:103AC00013EEFFF023EEFFF0F86AA68EA69CE968DD
:103AD0000E0EEA6E0068000EED6A0050FDE14FEC3C
:103AE00017F006EC00F0FFD7F2CFF6FFF29EA69E8D
:103AF000A69CE9CFA9FFF3CFAAFFA680A850A94AA8
:103B0000AA2AA680A8CFF3FFF6BEF28E1200F2CF4B
:103B1000EAFFF29EA69EA69CA684E9CFA9FFF3CF5A
:103B2000AAFFE4CFA8FF49EC1EF0A694EABEF28EED
:103B30001200E8AE0BD0F3CFEAFFE4CFEEFFF4CFF4
:103B4000EEFFF6CFEEFFF7CFEEFF1200E8BC82EFFC
:103B50001EF01200E8AE04D0F3CFEAFFEE501200E0
:103B6000E8BC7CEF1EF0E9CFF6FFF3CFF7FFF86E6D
:103B70000900F5501200E8AE09D0F3CFEAFFE4CF18
:103B8000EEFFF4CFEEFFF6CFEEFF1200E8BC8AEFB7
:103B90001EF01200D9CFE5FFE1CFD9FF020EDBCF37
:103BA000A9FFA69CA69EA680A850E4CFD9FF12002C
:103BB00072A2FED7928A7450000074507198718876
:103BC0007186A38AA398120025642000F2CFF6FF25
:103BD000F29EA69EA69CE9CFA9FFF3CFAAFFA680DE
:103BE000A850F6BEF28E1200E8AE07D0F3CFEAFF7F
:103BF000E4CFEEFFF4CFEEFF1200E8BC86EF1EF03C
:103C00001200700ED36E9B8CFF0E926893689468BE
:103C10009668626AF19E1200800EE56E040EE56EF3
:103C2000260EE56E69EC18F0030EE126120000C0C6
:103C3000E5FF5CEC19F0006E005001E1FF00E4CFFD
:103C400000F01200E8AE05D0F3CFEAFFE4CFEEFFBC
:103C50001200E8BC84EF1EF01200010E0401AF6FE9
:103C60001C0E0401A56FA66B0CEC1EF0120000E800
:103C700003010000000000FF0000000000000F0032
:103C80000401AF6B1C0E0401A56FA66B0CEC1EF0BB
:103C90001200550EA76EAA0EA76EA682A6B2FED778
:103CA000A94AAA2A01006E3C000023040000120069
:103CB000000066EC1BF038EC1AF0120004013151E0
:103CC0000401305D1200ACA2FED7AD6E120001EC13
:103CD0001EF0120017EC1BF012000401B551120087
:103CE0000401BF51120004012D511200AB989D9A9E
:103CF0001200E8CF7FFF1200E6EF1DF074EF1DF019
:103D000058EF1CF03AEF1CF087EF1DF04AEF1DF062
:083D1000C2EF1CF090EF1CF063
:020000040030CA
:010006008574
:00000001FF
