:020000040000FA
:10000000EDEF32F0C96E120082EF2AF0C2EC2BF055
:10001000A1EC2CF0FDD7120063EF31F0D9CFE5FF52
:10002000E1CFD9FF00C0E5FF01C0E5FF02C0E5FF59
:1000300003C0E5FF04C0E5FF05C0E5FF06C0E5FF1E
:1000400007C0E5FF08C0E5FF09C0E5FF0AC0E5FFFE
:100050000BC0E5FF0CC0E5FF0DC0E5FF0EC0E5FFDE
:100060000FC0E5FF10C0E5FF11C0E5FF12C0E5FFBE
:1000700013C0E5FF14C0E5FF15C0E5FF16C0E5FF9E
:1000800017C0E5FF18C0E5FF19C0E5FF1AC0E5FF7E
:100090001BC0E5FF1CC0E5FF1DC0E5FF1EC0E5FF5E
:1000A0001FC0E5FF20C0E5FF21C0E5FF22C0E5FF3E
:1000B00023C0E5FF020EDBCF00F0030EDBCF01F023
:1000C000040EDBCF02F00250086E0150076E0050A4
:1000D000066EE56A100EE56E0850E56E0750E56E97
:1000E0000650E56E800EE56E030EE56E500EE56E71
:1000F00065EC24F0080EE12658C303F059C304F060
:100100005AC305F05BC306F003C007F004C008F053
:1001100005C009F006C00AF0D8800AAED8900AE3FC
:100120000A1E091E081E076C05E1082A03E1092AB8
:10013000D8B40A2A50C30BF051C30CF0E86A03018B
:1001400051BFFF0E0D6E0E6ED8905431106E5331AC
:100150000F6ED89010320F325551E840E840C00B76
:1001600010125541E8403F0BE8BAC009116E126AFF
:1001700011BE12680F500B5C0F6E10500C58106EB1
:1001800011500D58116E12500E58126E800F810FC3
:1001900008E1FF0E115C05E1FF0E105C02E1FE0EAE
:1001A0000F5CD8A04ED01250800F800F08E1000ED7
:1001B000115C05E1000E105C02E1030E0F5CD8B08B
:1001C00040D00A340A30166E0930156E0830146EAD
:1001D0000730136E5EC317F05FC318F0E86A0301BF
:1001E0005FBFFF0E196E800FF36E1650800FF35C29
:1001F00008E11550195C05E11450185C02E1135038
:10020000175C1FE30C50156E15260D34166ED89032
:10021000153616360B44E844FC0B146E0B50E844BC
:10022000E844030B15120301526B1450536F155021
:10023000546F1650556F586B596B5A6B5B6BADEF23
:1002400004F0D89009300C6E08300B6ED8900C3248
:100250000B32D8900C320B320A50E838E844E00BED
:100260000C120A38E8441F0BE8B8E0090E6A08507F
:10027000076E0950086ED89008320732D8900832BD
:1002800007320A50E840E840C00B08120A40E84034
:100290003F0BE86A0CBEFF0E096E0A6EE86A08BEE4
:1002A000FF0E0D6EE56E0D50E56E0850E56E0750C1
:1002B000E56E0A50E56E0950E56E0C50E56E0B5088
:1002C000E56EF3EC1AF0076EF3CF08F0F4CF09F007
:1002D000E9CF0AF0080EE1265EC30BF05FC30CF015
:1002E000E86A03015FBFFF0E0D6E0E6EE56E0D50E6
:1002F000E56E0C50E56E0B50E56E0A50E56E095048
:10030000E56E0850E56E0750E56ED9EC1CF0076EFF
:10031000F3CF08F0080EE12656C309F057C30AF0E0
:10032000E86A030157BFFF0E136E0A50176E1726B7
:100330001334186ED890173618360944E844FC0B6D
:10034000166E0950E844E844030B1712156AD8806A
:1003500006AED890D8B062D107C009F008C00AF044
:10036000E86A08BEFF0E136E800FF36E1250800F06
:10037000F35C08E11150135C05E110500A5C02E1E6
:100380000F50095CD8B022D10650800FF36E185080
:10039000800FF35C08E11750055C05E11650045C22
:1003A00002E11550035CD8B0EAD05CC309F05DC32C
:1003B0000AF0E86A03015DBFFF0E136E146E03506E
:1003C000092604500A22055013220650142209500F
:1003D0000301586F0A50596F13505A6F14505B6FD6
:1003E0005EC309F05FC30AF05CC313F05DC314F091
:1003F0000A50800FF36E1450800FF35C02E113502B
:10040000095CD8B0A0D058C319F059C31AF05AC328
:100410001BF05BC31CF0D8901B301E6E1A301D6E93
:10042000D8901E321D32D8901E321D321C50E83832
:10043000E844E00B1E121C38E8441F0BE8B8E00942
:10044000206AD8901B30206E1A301F6ED890203250
:100450001F321C50E840E840C00B20121C40E8400E
:100460003F0BE86A1EBEFF0E216E226EE86A20BEB8
:10047000FF0E236EE56E2350E56E2050E56E1F5093
:10048000E56E2250E56E2150E56E1E50E56E1D5062
:10049000E56EF3EC1AF01D6EF3CF1EF0F4CF1FF0F3
:1004A000E9CF20F0080EE12609C021F00AC022F0B1
:1004B000E86A0ABEFF0E236EE56E2350E56E2250F9
:1004C000E56E2150E56E2050E56E1F50E56E1E5022
:1004D000E56E1D50E56ED9EC1CF01D6EF3CF1EF0DD
:1004E000080EE126E86A1EBEFF0E1F6E206E125037
:1004F000800FF36E2050800FF35C08E11F50115CF9
:1005000005E11E50105C02E11D500F5C1CE2095019
:10051000135C096E0A5014580A6EE86A0ABEFF0E90
:10052000136E146E0950195E0A501A5A13501B5A52
:1005300014501C5A19500301586F1A50596F1B5010
:100540005A6F1C505B6F1850800FF36E03015B51A4
:10055000800FF35C08E15A51175C05E15951165CB4
:1005600002E15851155CD8B0D1D115500301586F34
:100570001650596F17505A6F18505B6FC7D11850EB
:10058000800FF36E0650800FF35C08E10550175C96
:1005900005E10450165C02E10350155CD8B0B6D1F9
:1005A0000B50035C096E0C5004580A6E0D50055830
:1005B000136E0E500658146E09500301586F0A50FE
:1005C000596F13505A6F14505B6FA0D15CC309F080
:1005D0005DC30AF0E86A03015DBFFF0E136E146E7F
:1005E0000B5009260C500A220D5013220E501422D3
:1005F0000950035C096E0A5004580A6E13500558DE
:10060000136E14500658146E09500301586F0A50A7
:10061000596F13505A6F14505B6F78D1081E076CD6
:10062000D8B4082AE86A08BEFF0E096E0A6E125096
:10063000800FF36E0A50800FF35C08E10950115CE3
:1006400005E10850105C02E107500F5CD8B03BD1C7
:10065000181C0A6E171C096E161C086E151C076EF6
:10066000072A04E1082A02E1094A0A2A0A50800FEF
:10067000F36E0650800FF35C08E10550095C05E15C
:100680000450085C02E10350075CD8B0F5D05CC3AD
:1006900013F05DC314F0E86A03015DBFFF0E156E31
:1006A000166E1350035C136E14500458146E1550DC
:1006B0000558156E16500658166E13500301586FE4
:1006C0001450596F15505A6F16505B6F5EC313F07C
:1006D0005FC314F05CC315F05DC316F01450800FB7
:1006E000F36E1650800FF35C02E11550135CD8B026
:1006F000A7D058C317F059C318F05AC319F05BC3F9
:100700001AF0D89019301C6E18301B6ED8901C321D
:100710001B32D8901C321B321A50E838E844E00BE8
:100720001C121A38E8441F0B1C1E1B6CD8B41C2A60
:10073000D89019301E6E18301D6ED8901E321D32A2
:100740001A50E840E840C00B1E121A40E8403F0B28
:100750001E1E1D6CD8B41E2AE86A1CBEFF0E1F6E3A
:10076000206EE86A1EBEFF0E216EE56E2150E56E1A
:100770001E50E56E1D50E56E2050E56E1F50E56E73
:100780001C50E56E1B50E56EF3EC1AF01B6EF3CFB8
:100790001CF0F4CF1DF0E9CF1EF0080EE12613C0C7
:1007A0001FF014C020F0E86A14BEFF0E216EE56E43
:1007B0002150E56E2050E56E1F50E56E1E50E56E2F
:1007C0001D50E56E1C50E56E1B50E56ED9EC1CF01B
:1007D0001B6EF3CF1CF0080EE1261C1E1B6CD8B458
:1007E0001C2AE86A1CBEFF0E1D6E800FF36E1250AD
:1007F000800FF35C08E111501D5C05E110501C5C9A
:1008000002E10F501B5C1CE21350155C136E145078
:100810001658146EE86A14BEFF0E0F6E106E135059
:100820001726145018220F50192210501A22175050
:100830000301586F1850596F19505A6F1A505B6F57
:1008400003015B51800FF36E0A50800FF35C08E1E7
:1008500009505A5D05E10850595D02E10750585DA5
:10086000D8B054D007500301586F0850596F095041
:100870005A6F0A505B6F4AD00650800FF36E0A50D1
:10088000800FF35C08E10950055C05E10850045C49
:1008900002E10750035CD8B039D00B500324076E37
:1008A0000C500420086E0D500520096E0E500620D5
:1008B0000A6E07500301586F0850596F09505A6F5C
:1008C0000A505B6F23D05CC307F05DC308F0E86A91
:1008D00003015DBFFF0E096E0A6E07500B2608501C
:1008E0000C2209500D220A500E220B5003260C50E8
:1008F00004220D5005220E50062203500301586FAA
:100900000450596F05505A6F06505B6FD890030121
:100910005A31046E5931036ED890043203325B5160
:10092000E840E840C00B04125B41E8403F0BE8BAE6
:10093000C009056E066A05BE06685251032653516A
:10094000042254510522555106220350526F04507F
:10095000536F0550546F0650556FE56A100EE56EE3
:10096000800EE56E030EE56E500EE56E0250E56EEC
:100970000150E56E0050E56E65EC24F0080EE126AE
:10098000E4CF23F0E4CF22F0E4CF21F0E4CF20F055
:10099000E4CF1FF0E4CF1EF0E4CF1DF0E4CF1CF055
:1009A000E4CF1BF0E4CF1AF0E4CF19F0E4CF18F055
:1009B000E4CF17F0E4CF16F0E4CF15F0E4CF14F055
:1009C000E4CF13F0E4CF12F0E4CF11F0E4CF10F055
:1009D000E4CF0FF0E4CF0EF0E4CF0DF0E4CF0CF055
:1009E000E4CF0BF0E4CF0AF0E4CF09F0E4CF08F055
:1009F000E4CF07F0E4CF06F0E4CF05F0E4CF04F055
:100A0000E4CF03F0E4CF02F0E4CF01F0E4CF00F054
:100A1000E4CFD9FF1200D9CFE5FFE1CFD9FF00C065
:100A2000E5FF01C0E5FF02C0E5FF03C0E5FF04C02C
:100A3000E5FF05C0E5FF06C0E5FF07C0E5FF08C00C
:100A4000E5FF09C0E5FF0AC0E5FF0BC0E5FF0CC0EC
:100A5000E5FF0DC0E5FF0EC0E5FF0FC0E5FF10C0CC
:100A6000E5FF11C0E5FF12C0E5FF13C0E5FF14C0AC
:100A7000E5FF15C0E5FF16C0E5FF17C0E5FF18C08C
:100A8000E5FF19C0E5FF1AC0E5FF1BC0E5FF1CC06C
:100A9000E5FF1DC0E5FF1EC0E5FF020EDBCF00F045
:100AA000030EDBCF01F0040EDBCF02F0050EDBCF2F
:100AB00003F0060EDBCF04F0070EDBCF05F0080EC7
:100AC000DBCF06F0090EDBCF07F00A0EDBCF08F014
:100AD000096A0A6A02C00DF00D50800A0DE1025049
:100AE0000301BA6F0150B96F0050B86F030E016E69
:100AF000B80E006E800E026E03C0E9FF04C0F3FF63
:100B0000055048EC33F00B6E0B50D8B4C1EF08F031
:100B10000B50250A02E0A8EF08F00C6A0D6A0E6A75
:100B20000F6A106A0A0E116E126A136A146A200E96
:100B3000156E1668176A2B0E186E032A02E3044A14
:100B4000052A03C0E9FF04C0F3FF055048EC33F069
:100B5000196E250A13E11950E56E0250E56E015039
:100B6000E56E0050E56E44EC22F0040EE126094AE1
:100B70000A2A032A02E3044A052ABED71950300A7A
:100B800006E1300E156E032A02E3044A052A03C06B
:100B9000E9FF04C0F3FF055048EC33F02D0A06E1ED
:100BA000010E146E032A02E3044A052A03C0E9FF7A
:100BB00004C0F3FF055048EC33F0200A08E1010EB1
:100BC000176E200E186E032A02E3044A052A03C09A
:100BD000E9FF04C0F3FF055048EC33F02B0A06E1AF
:100BE000010E176E032A02E3044A052A03C0E9FF37
:100BF00004C0F3FF055048EC33F0196E310E195C58
:100C00002BE33A0E195C28E203C019F004C01AF075
:100C100005C01BF019C0E9FF1AC0F3FF1B5048ECD8
:100C200033F01C6E300E1C5C11E33A0E1C5C0EE2BD
:100C300013500A0DF3CF1DF01C501D26D00E1D249D
:100C4000136E192A02E31A4A1B2AE4D719C003F0CB
:100C50001AC004F01BC005F003C0E9FF04C0F3FF95
:100C6000055048EC33F02E0A2DE1032A02E3044A32
:100C7000052A166A03C019F004C01AF005C01BF05B
:100C800019C0E9FF1AC0F3FF1B5048EC33F01C6E8B
:100C9000300E1C5C11E33A0E1C5C0EE216500A0D7D
:100CA000F3CF1DF01C501D26D00E1D24166E192AE0
:100CB00002E31A4A1B2AE4D719C003F01AC004F051
:100CC0001BC005F003C0E9FF04C0F3FF055048EC6A
:100CD00033F0196E6C0A07E1010E0C6E032A02E371
:100CE000044A052A09D01950680A06E1010E0E6E61
:100CF000032A02E3044A052A03C0E9FF04C0F3FF04
:100D0000055048EC33F0750A06E1010E106E032A17
:100D100002E3044A052A03C0E9FF04C0F3FF0550BB
:100D200048EC33F0196E730A05E1010E0D6E200ECA
:100D3000156E3FD01950780A03E1100E116E39D0AC
:100D40001950580A05E1100E116E010E126E31D0C5
:100D50001950630A02E1116A2CD019506F0A03E19D
:100D6000080E116E26D01950660A03E1010E0F6EAF
:100D700020D01950640A1DE01950690A1AE0105079
:100D800005E0FF0E03260422052213D01950E56E5C
:100D90000250E56E0150E56E0050E56E44EC22F025
:100DA000040EE126094A0A2A032A02E3044A052A14
:100DB000A3D60D5021E00650030F0D6E000E072044
:100DC000196E000E08201A6E0DC006F019C007F04B
:100DD0001AC008F0FD0E0D26FF0E19221A220DC0B2
:100DE000E9FF19C0F3FF1A5002EC32F00D6EF3CF99
:100DF00019F0F4CF1AF0FDD00F500DE0000E1A6E6E
:100E0000120E196E0A0E0D6E040E0626000E072233
:100E100008221668EED016680C5023E00650040F26
:100E20000C6E000E07200F6E000E08201B6E0CC00B
:100E300006F00FC007F01BC008F0FC0E0C26FF0EDA
:100E40000F221B220CC0E9FF0FC0F3FF1B5088ECE0
:100E500031F00C6EF3CF0FF0F4CF1BF0E9CF1CF0A4
:100E600067D00E502FE00650020F0E6E000E0720C6
:100E70001D6E000E08201E6E0EC006F01DC007F08D
:100E80001EC008F0FE0E0E26FF0E1D221E220EC0F2
:100E9000E9FF1DC0F3FF1E50C1EC32F00E6E0EC014
:100EA0000CF00F6A1B6A1C6A11500A0A03E1105009
:100EB000D8B43ED00C500E6E0EC00CF00F6A1B6AF8
:100EC0001C6A36D00650020F0E6E000E07201D6EF3
:100ED000000E08201E6E0EC006F01DC007F01EC0DA
:100EE00008F0FE0E0E26FF0E1D221E220EC0E9FF88
:100EF0001DC0F3FF1E50C1EC32F00E6EF3CF1DF09B
:100F00000EC00CF01DC00FF0E86A1DBEFF0E1B6E78
:100F10001C6E11500A0A02E110500AE00C500E6ECD
:100F20000F501D6E0EC00CF01DC00FF01B6A1C6A26
:100F3000030E196E6E0E0D6E800E1A6E1150D8B41F
:100F400040D0105013E01150E56E030EE56E6E0EAA
:100F5000E56E1C50E56E1B50E56E0F50E56E0C50B3
:100F6000E56EFDEC1BF0070EE12612D01150E56E88
:100F7000030EE56E6E0EE56E1C50E56E1B50E56EC1
:100F80000F50E56E0C50E56E5DEC28F0070EE12683
:100F900017502FE00DC0E9FF19C0F3FF1A5048ECBD
:100FA00033F02D0A26E0FF0E0D2619221A2218C052
:100FB000E5FF0DC0E9FF19C0F3FF1A50C0EC33F094
:100FC00018D00CC0E5FF0DC0E9FF19C0F3FF1A509F
:100FD000C0EC33F00D50010F0C6E000E19200E6E98
:100FE000000E1A20E56A0CC0E9FF0EC0F3FFC0EC4A
:100FF00033F00DC00CF019C00EF01AC00FF013C082
:1010000010F0105010E00CC0E9FF0EC0F3FF0F50BD
:1010100048EC33F0176E175006E00C2A02E30E4A34
:101020000F2A1006EED710C013F014501EE109C0AD
:101030000CF00AC00EF010C00FF00F5010E0155069
:10104000E56E0250E56E0150E56E0050E56E44EC31
:1010500022F0040EE1260C4A0E2A0F06EED70CC031
:1010600009F00EC00AF00FC013F016C00CF00DC04E
:101070000DF019C00EF01AC00FF009C010F00AC030
:1010800015F00DC0E9FF0EC0F3FF0F5048EC33F030
:10109000166E1650D8B43ED00CC016F0176A161E45
:1010A000171E1650171005E00CC016F00C0616504F
:1010B00031E00DC0E9FF0EC0F3FF0F5048EC33F0F4
:1010C000116E125010E01150E56E7EEC32F0166E8B
:1010D000E652165004E0DF0E1114166E02D011C055
:1010E00016F016C011F01150E56E0250E56E015079
:1010F000E56E0050E56E44EC22F0040EE1260D2A68
:1011000002E30E4A0F2A104A152A1350D8B4B9D751
:101110001306B7D710C009F015C00AF014502BE021
:1011200010C00CF015C00DF013C00EF00E501FE0F3
:10113000200EE56E0250E56E0150E56E0050E56E42
:1011400044EC22F0040EE1260C4A0D2A0E06EED7DE
:101150000B50E56E0250E56E0150E56E0050E56EF5
:1011600044EC22F0040EE126094A0A2A04D00CC0FD
:1011700009F00DC00AF0032A02E3044A052A7CEFB5
:1011800005F00AC0F3FF0950E4CF1EF0E4CF1DF0D4
:10119000E4CF1CF0E4CF1BF0E4CF1AF0E4CF19F059
:1011A000E4CF18F0E4CF17F0E4CF16F0E4CF15F059
:1011B000E4CF14F0E4CF13F0E4CF12F0E4CF11F059
:1011C000E4CF10F0E4CF0FF0E4CF0EF0E4CF0DF059
:1011D000E4CF0CF0E4CF0BF0E4CF0AF0E4CF09F059
:1011E000E4CF08F0E4CF07F0E4CF06F0E4CF05F059
:1011F000E4CF04F0E4CF03F0E4CF02F0E4CF01F059
:10120000E4CF00F0E4CFD9FF12003C4E4F20464C13
:101210004F41543E0000D9CFE5FFE1CFD9FF00C0D8
:10122000E5FF01C0E5FF02C0E5FF03C0E5FF04C024
:10123000E5FF05C0E5FF06C0E5FF07C0E5FF08C004
:10124000E5FF09C0E5FF0AC0E5FF0BC0E5FF0CC0E4
:10125000E5FF0DC0E5FF020EDBCF00F0030EDBCF94
:1012600001F0040EDBCF02F00050090F066E000EF5
:101270000120076E000E0220086E0B6E07500A6EEA
:101280000650096EE56A0D0EE56E0B50E56E0A50CC
:10129000E56E0950E56E800EE56E040EE56EF30E08
:1012A000E56E65EC24F0080EE12600C009F001C0EF
:1012B0000AF002C00BF0E56AE56E0B50E56E0A50CD
:1012C000E56E0950E56E800EE56E040EE56E8A0E41
:1012D000E56E65EC24F0080EE1268AC403F00350A5
:1012E000010A04E00350030A01E013D10401FB5199
:1012F0000301685D0301C16F0401FC5103016959D9
:101300000301C26F030168510401FB6F03016951BE
:101310000401FC6F03016A510401FD6F03016B516D
:101320000401FE6F0301C151C211D8A47ED04AEC62
:1013300030F0036EF3CF04F0F4CF05F0E9CF09F0FD
:10134000030160510A6E61510B6E62510C6E635164
:101350000D6E0A50035E0B50045A0C50055A0D5086
:10136000095A03500301866F0450876F0550886F38
:101370007F0E0914896F0401FFB125D00301873561
:101380008931046E8831036E043404320332000E56
:1013900004BEFF0E096E056E8FC40AF00B6A0C6A5C
:1013A0000D6A0D50800FF36E0950800FF35C08E159
:1013B00005500C5C05E104500B5C02E103500A5C33
:1013C00002E20401FF810401FFB149D0F7C403F038
:1013D000F8C404F0F9C405F0FAC409F00301895116
:1013E000800FF36E0950800FF35C08E10550885DB3
:1013F00005E10450875D02E10350865D08E203C009
:1014000086F304C087F305C088F309C089F303019C
:101410006CA304D0010E036E046A02D00368046852
:1014200003C0C1F304C0C2F31AD00401FF9164C326
:1014300086F365C387F366C388F367C389F3030143
:1014400086510401F76F030187510401F86F03010E
:1014500088510401F96F030189510401FA6F0301F6
:101460008951800F800F08E1000E885D05E1000EB4
:10147000875D02E1010E865D06E203018A6B8B6BDC
:101480008C6B8D6B46D003018651036E8751046EC1
:101490008851056E8951E56E0550E56E0450E56E84
:1014A0000350E56E010EE56E000EE56AE56AE56A39
:1014B0009AEC20F0036EF3CF04F0F4CF05F0E9CFFF
:1014C00009F0080EE126C1C30AF0C2C30BF0E86AB6
:1014D0000301C2BFFF0E0C6E0D6E0950E56E055084
:1014E000E56E0450E56E0350E56E0D50E56E0C5050
:1014F000E56E0B50E56E0A50E56EF3EC1AF0030151
:101500008A6FF3CF8BF3F4CF8CF3E9CF8DF3080E12
:10151000E126020E04018A5DD8A045D103016CA129
:1015200042D10050230F036E000E0120046E000E06
:101530000220E56E0450E56E0350E56E0EEC00F0FF
:10154000030EE1260050230F036E000E0120046EEF
:10155000000E0220056E020E0326000E0422052254
:1015600003C0E9FF04C0F3FF055088EC31F0F3CF6E
:1015700004F0F4CF05F0E9CF09F00450036E0550F4
:10158000046ED89004320332D890043203320950EA
:10159000E840E840C00B04120940E8403F0BE8BABD
:1015A000C009056E096A05BE096803016851035C3C
:1015B00003018E6F03016951045803018F6F03010A
:1015C0006A5105580301906F03016B5109580301DB
:1015D000916FD88091AFD89022E304018C1D046EE6
:1015E0008B1D036E034A042AE86A04BEFF0E056ED3
:1015F000096E03019151800FF36E0950800FF35C67
:1016000008E10550905D05E104508F5D02E1035053
:101610008E5D05E303018E6B8F6B906B916B030105
:101620009151800F800F08E1000E905D05E1000EE2
:101630008F5D02E1010E8E5D1EE38BC403F08CC44E
:1016400004F0E86A04018CBFFF0E056E800FF36E94
:1016500003019151800FF35C08E19051055C05E1B5
:101660008F51045C02E18E51035C05E303018E6B34
:101670008F6B906B916B0401905109E0E86CD890EE
:1016800003018E378F3790379137010FF9E303014C
:101690009151800F800F08E1000E905D05E1800EF2
:1016A0008F5D02E1000E8E5D07E303018E697F0E00
:1016B0008F6F906B916B14D003019151800F810F4C
:1016C00008E1FF0E905D05E1800E8F5D02E1000EE6
:1016D0008E5D06E203018E6B800E8F6F90699169BB
:1016E0000050330F036E000E0120046E000E022026
:1016F000056E03018E51096E8F51E56E0950E56E3E
:101700000550E56E0450E56E0350E56E91EC0CF06B
:10171000050EE12604018A51030A23E10050330F2C
:10172000036E000E0120046E000E0220056E0B0EEB
:101730000326000E0422052203C0E9FF04C0F3FFC4
:10174000055088EC31F0F3CF04F0F4CF05F00450ED
:10175000036E0550046E03500401F36F0450F46FE0
:1017600022D00050330F036E000E0120046E000ED5
:101770000220056E0B0E0326000E0422052203C074
:10178000E9FF04C0F3FF055088EC31F0F3CF04F01B
:10179000F4CF05F00450036E0550046E03500401AD
:1017A000F56F0450F66F8AC403F00350010A04E099
:1017B0000350030A01E07DD0F3C403F0F4C404F045
:1017C000E86A0401F4BFFF0E056E096E03018A5139
:1017D000035C03018E6F03018B51045803018F6F6B
:1017E00003018C5105580301906F03018D51095875
:1017F0000301916F800F800F08E1000E905D05E1FD
:10180000800E8F5D02E1000E8E5D07E303018E699D
:101810007F0E8F6F906B916B14D003019151800FED
:10182000810F08E1FF0E905D05E1800E8F5D02E102
:10183000000E8E5D06E203018E6B800E8F6F906945
:1018400091690050440F036E000E0120046E000EDB
:101850000220056E03018E51096E8F51E56E09500D
:10186000E56E0550E56E0450E56E0350E56E91ECB3
:101870000CF0050EE126440E0026000E0122022285
:101880000B0E0026000E0122022200C0E9FF01C05B
:10189000F3FF025088EC31F0F3CF01F0F4CF02F007
:1018A0000150006E0250016E00500401F56F0150AE
:1018B000F66F0850086EE56A0D0EE56E800EE56E57
:1018C000040EE56EF30EE56E0850E56E0750E56E0A
:1018D0000650E56E65EC24F0080EE126E4CF0DF02D
:1018E000E4CF0CF0E4CF0BF0E4CF0AF0E4CF09F042
:1018F000E4CF08F0E4CF07F0E4CF06F0E4CF05F042
:10190000E4CF04F0E4CF03F0E4CF02F0E4CF01F041
:10191000E4CF00F0E4CFD9FF120025642025640A4B
:101920000000D9CFE5FFE1CFD9FF00C0E5FF01C03E
:10193000E5FF02C0E5FF03C0E5FF04C0E5FF05C009
:10194000E5FF06C0E5FF07C0E5FF08C0E5FF09C0E9
:10195000E5FF0AC0E5FF0BC0E5FF0CC0E5FF0DC0C9
:10196000E5FF0EC0E5FF020EDBCF00F0030EDBCF7C
:1019700001F0040EDBCF02F0050EDBCF03F0060E04
:10198000DBCF04F002500A6E0150096E0050086E61
:10199000E56A110EE56E0A50E56E0950E56E0850D5
:1019A000E56E800EE56E040EE56E230EE56E65ECC9
:1019B00024F0080EE12632C405F033C406F0E86ACC
:1019C000040133BFFF0E076E0301996F0650986F35
:1019D0000550976F966B03C005F004C006F0E86AE7
:1019E00004BEFF0E076E086E23C409F0E56AE56ABF
:1019F000E56A0950E56E0850E56E0750E56E065041
:101A0000E56E0550E56EF3EC1AF00301926FF3CF2B
:101A100093F3F4CF94F3E9CF95F3080EE126040194
:101A20002451D8B4E3D00450800F800F02E1010E9E
:101A3000035C25E304012951800F7C0F08E1000EAF
:101A4000285D05E1000E275D02E1000E265D17E22C
:101A500004013151800FF36E03019951800FF35C43
:101A60000DE198510401305D09E103019751040132
:101A70002F5D04E10301965104012E5D33E3D8800C
:101A800004AED890D8A043D004012951800F840F10
:101A900008E1000E285D05E1000E275D02E1010E60
:101AA000265D35E30301991D0C6E981D0B6E971D85
:101AB0000A6E961D096E092A04E10A2A02E10B4A00
:101AC0000C2A0C50800FF36E04013151800FF35C2F
:101AD00008E130510B5C05E12F510A5C02E12E5107
:101AE000095C15E2055004012625096E06502721E0
:101AF0000A6E075028210B6E085029210C6E0950E0
:101B0000266F0A50276F0B50286F0C50296F035017
:101B1000041031E126C403F027C404F028C409F0FE
:101B200029C40AF0E56AE56AE56A100EE56E0A5016
:101B3000E56E0950E56E0450E56E0350E56ED9EC94
:101B40001CF00B6EF3CF0CF0F4CF0DF0E9CF0EF0DC
:101B5000080EE1260B50035E0C50045A0D50095A32
:101B60000E500A5A03500401266F0450276F095083
:101B7000286F0A50296F040126390F0B036E27398D
:101B8000046EF00B041A03262851E838F00B0412F7
:101B900028390F0B096E29390A6EF00B0A1A09262B
:101BA000F00E0AB60A2624C40BF0E56AE56AE56A77
:101BB0000B50E56E0A50E56E0950E56E0450E56E77
:101BC0000350E56EF3EC1AF0036EF3CF04F0F4CF9C
:101BD00009F0E9CF0AF0080EE1260350030192272D
:101BE00004509323095094230A509523040125514E
:101BF000D8B465D02A51055C03019A6F04012B51BA
:101C0000065803019B6F04012C51075803019C6F78
:101C100004012D51085803019D6F800F800F08E1CA
:101C2000010E9C5D05E1000E9B5D02E1000E9A5DD8
:101C300006E303019A699B699C6B9D6B13D00301BA
:101C40009D51800F810F08E1FF0E9C5D05E1000EA4
:101C50009B5D02E1000E9A5D05E203019A6B9B6BAE
:101C60009C699D6903019A519A25036E9B35046E08
:101C70009C35096E9D350A6E25C40BF0E56AE56A50
:101C8000E56A0B50E56E0A50E56E0950E56E0450AA
:101C9000E56E0350E56EF3EC1AF0036EF3CF04F03B
:101CA000F4CF09F0E9CF0AF0080EE1260350030152
:101CB000922704509323095094230A5095230550EA
:101CC00004012A6F06502B6F07502C6F08502D6FA0
:101CD00003019951800FF36E03019551800FF35C5E
:101CE0000DE194510301985D09E103019351030152
:101CF000975D04E1030192510301965D11E2030136
:101D0000965104012E6F0301975104012F6F0301B7
:101D100098510401306F030199510401316F3AD099
:101D20000301991D066E981D056E971D046E961D84
:101D3000036E032A04E1042A02E1054A062A03018C
:101D40009551800FF36E0650800FF35C08E105504B
:101D5000945D05E10450935D02E10350925D0AE257
:101D6000035004012E6F04502F6F0550306F065042
:101D7000316F10D00301925104012E6F0301935172
:101D800004012F6F030194510401306F0301955139
:101D90000401316FE56A110EE56E800EE56E040EEA
:101DA000E56E230EE56E0250E56E0150E56E0050C3
:101DB000E56E65EC24F0080EE126E4CF0EF0E4CFEA
:101DC0000DF0E4CF0CF0E4CF0BF0E4CF0AF0E4CF59
:101DD00009F0E4CF08F0E4CF07F0E4CF06F0E4CF59
:101DE00005F0E4CF04F0E4CF03F0E4CF02F0E4CF59
:101DF00001F0E4CF00F0E4CFD9FF120000C0E5FF0E
:101E000001C0E5FF02C0E5FF03C0E5FF04C0E5FF38
:101E100005C0E5FF06C0E5FF07C0E5FF08C0E5FF18
:101E200009C0E5FF0AC0E5FF0BC0E5FF0CC0E5FFF8
:101E3000006A016A026A040E025CD8B0EBD1100E8F
:101E4000015CD8B0E7D1012A04014B2B100E4B5D89
:101E5000D8B04B6B4B39E8441F0B036E046ABD0EC0
:101E60000326030E042203C0E9FF04C0EAFFEFCFFC
:101E700003F04BC404F0070E0416010E056E000EAD
:101E8000066E045006E0E86CD89005360636010F61
:101E9000FCE3076A035005160750061605500610A6
:101EA000D880E866D890056A05360550D8A4C3D70F
:101EB00004014B51020DF450046EF3CF03F0E00E19
:101EC0000324056E000E0420066E05C0E9FF06C05F
:101ED000EAFFEECF05F0EFCF06F048C407F007A009
:101EE0009DD0B30E0324076E040E0420086E07C0B5
:101EF000E9FF08C0EAFFEECF07F0EFCF08F0065089
:101F0000800FF36E0850800FF35C02E10750055C10
:101F100003E2056A066A60D0D30E0326040E04228B
:101F200003C0E9FF04C0EAFFEECF03F0EFCF04F0F7
:101F30000450800FF36E0650800FF35C02E10550F1
:101F4000035C04E205683F0E066E46D00750055C50
:101F5000096E085006580A6EE86A0ABEFF0E0B6E3C
:101F6000E56E0B50E56E0A50E56E0950E56EE56AC8
:101F7000E56A400EE56E000EE56AF3EC1AF0096EB4
:101F8000F3CF0AF0F4CF0BF0E9CF0CF0080EE12606
:101F90000750035C076E08500458086EE86A08BED4
:101FA000FF0E036EE56E0350E56E0850E56E0750B8
:101FB000E56E0C50E56E0B50E56E0A50E56E09506B
:101FC000E56E9AEC20F0036EF3CF04F0080EE126E4
:101FD0000350056E0450066E04014751800FF36EE6
:101FE0000650800FF35C02E10550465D03E3056A8D
:101FF000066A14D004014651FF08036E3F0E475590
:10200000046E0650800FF36E0450800FF35C02E103
:102010000350055C03E305683F0E066E04014B5157
:10202000020DF450046EF3CF03F0930E0326040E5A
:10203000042203C0E9FF04C0EAFFEECF03F0EFCFB4
:1020400004F00350055C036E04500658046ED880FB
:1020500004AED89004E3041E036CD8B4042A022A08
:1020600004014751800FF36E0450800FF35C02E1CE
:102070000350465DD8B0DFD604014B51020DF45039
:10208000046EF3CF03F0930E0326040E042203C064
:10209000E9FF04C0EAFF05C0EEFF06C0EFFF48C439
:1020A00003F003A459D04B51020DF450046EF3CF4A
:1020B00003F0000E0324076E030E0420086E07C011
:1020C000E9FF08C0EAFFEECF09F0EFCF0AF00950B0
:1020D0000A10D8B441D05A0E0326040E042203C0BD
:1020E000E9FF04C0EAFFEECF03F0EFCF04F00350A6
:1020F000055C036E04500658046E03101CE0045087
:10210000800F800F02E1010E035C0B6A0B360A5050
:10211000800F800F02E1010E095C096A09360B503D
:10212000091809E107C0E9FF08C0EAFF03C0EEFF94
:1021300004C0EFFF80D604014B51020DF450046E31
:10214000F3CF03F0000E0326030E042203C0E9FFC1
:1021500004C0EAFFEE6AEF6A48C403F003A246D067
:1021600000500EE100C003F0002A046A4C0E032662
:10217000040E042203C0E9FF04C0EAFF420EEF6E22
:1021800000C003F00028046E076A4C0E0326040EFC
:10219000072204014B51086E640E082603C0E9FFB4
:1021A00007C0EAFF08C0EFFF04C003F0042A076A73
:1021B0004C0E0326040E07220650086E03C0E9FFEA
:1021C00007C0EAFF08C0EFFF04C003F00428006E58
:1021D000046A4C0E0326040E04220550076E03C049
:1021E000E9FF04C0EAFF07C0EFFF25D64BC403F0A8
:1021F0000650E56E0550E56EE56A0350E56E000E8B
:10220000E56E480EE56EBE0EE56E6BEC2DF0070E2A
:10221000E12611D602C001F000501EE048C402F0D1
:1022200002A21AD000C002F0002A036A4C0E022655
:10223000040E032202C0E9FF03C0EAFF0A0EEF6E9C
:102240000050E56E800EE56E040EE56E4C0EE56EF8
:10225000E7EC24F0040EE1260150E4CF0CF0E4CFCB
:102260000BF0E4CF0AF0E4CF09F0E4CF08F0E4CFBC
:1022700007F0E4CF06F0E4CF05F0E4CF04F0E4CFBC
:1022800003F0E4CF02F0E4CF01F0E4CF00F012005D
:1022900000C0E5FF01C0E5FF02C0E5FF03C0E5FFA8
:1022A00004C0E5FF05C0E5FF06C0E5FF07C0E5FF88
:1022B000C2A204D00401495178EF13F004014A513D
:1022C000D8B42DD104014951020DF450016EF3CF61
:1022D00000F0E00E0026000E012200C0E9FF01C060
:1022E000EAFFEECF00F0EFCF01F0230E4925026E9A
:1022F000036A0F0E032202C0E9FF03C0EAFFEFCF1B
:1023000002F00250FF0A01E164D002380F0B036EA5
:10231000920E0324046E056A0F0E0522066A920EC1
:1023200003260F0E062203C0E9FF06C0EAFFEFCF27
:1023300003F00250066E070E0616010E076E0650D9
:102340000DE006E6E86CD8900736010FFDE306D0F5
:10235000D89007BED8800732010FFBE3071C066E3A
:102360000350061604C0E9FF05C0EAFF06C0EFFFF0
:1023700002380F0B036E890E0324046E056A0F0EDC
:102380000522066A890E03260F0E062203C0E9FF06
:1023900006C0EAFFEFCF03F0070E0216010E066E2D
:1023A00002500DE006E6E86CD8900636010FFDE31A
:1023B00006D0D89006BED8800632010FFBE3061C7B
:1023C000026E0350021604C0E9FF05C0EAFF02C016
:1023D000EFFF04014951020DF450036EF3CF02F0F8
:1023E000E00E0226000E032201340130056E00309B
:1023F000046E0534053204320534053204320450CB
:10240000005C046E05500158056EC3CF00F0016AF0
:102410000050042601500522C4CF00F0016A00508C
:10242000076E066A065004260750052202C0E9FF1F
:1024300003C0EAFF04C0EEFF05C0EFFF04014551F1
:10244000010A01E06AD004014951020DF450016E05
:10245000F3CF00F0E00E0024026E000E0120036EA8
:1024600002C0E9FF03C0EAFFEECF02F0EFCF03F0B6
:10247000B30E0026040E012200C0E9FF01C0EAFFEE
:10248000EECF04F0EFCF05F09C0E0426D8A0050691
:102490000350800FF36E0550800FF35C02E104508F
:1024A000025C0EE20250640F046E000E0320056E03
:1024B00000C0E9FF01C0EAFF04C0EEFF05C0EFFF66
:1024C00004014951020DF450016EF3CF00F0D30E18
:1024D0000026040E012200C0E9FF01C0EAFFEECF92
:1024E00004F0EFCF05F0640E0426D8B0052A05509D
:1024F000800FF36E0350800FF35C02E10250045C26
:102500000CE29C0E0226D8A0030600C0E9FF01C021
:10251000EAFF02C0EEFF03C0EFFF04014A6B0401B3
:10252000492B100E495DD8B0496B4939E8441F0B5F
:10253000006E016ABD0E0026030E012200C0E9FFF5
:1025400001C0EAFFEFCF00F049C401F0070E011609
:10255000010E026E000E036E015006E0E86CD8908A
:1025600002360336010FFCE3046A005002160450E1
:10257000031602500310D880E866D890026A02362B
:102580000250D8A4B3D0400E04014925006E016A60
:10259000030E012200C0E9FF01C0EAFFEFCF00F007
:1025A0000044E844FC0B016E0128C26E230E49254D
:1025B000006E016A0F0E012200C0E9FF01C0EAFFB0
:1025C000EFCF00F00050FF0A01E18CD000380F0B74
:1025D000016E920E0124026E036A0F0E0322046A3A
:1025E000920E01260F0E042201C0E9FF04C0EAFF8B
:1025F000EFCF01F00050046E070E0416010E056EB9
:1026000004500DE006E6E86CD8900536010FFDE3B6
:1026100006D0D89005BED8800532010FFBE30150EB
:10262000051202C0E9FF03C0EAFF05C0EFFF380E44
:10263000016E0F0E026E00380F0B036E046A03501A
:10264000012604500222380E056E0F0E066E05504C
:1026500003260650042203C0E9FF04C0EAFFEFCFBF
:1026600003F0070E0016010E046E00500DE006E6A2
:10267000E86CD8900436010FFDE306D0D89004BE74
:10268000D8800432010FFBE30350041201C0E9FFBC
:1026900002C0EAFF04C0EFFF0F0145830000000005
:1026A00045930F01449308C0E5FFF2CF08F0F29E76
:1026B0004481000000000000000000000000000055
:1026C000000000000000000000000000000000000A
:1026D00000000000000000000000449108BEF28EDF
:1026E000E4CF08F0C282010E04014A6F040149518F
:1026F000E4CF07F0E4CF06F0E4CF05F0E4CF04F038
:10270000E4CF03F0E4CF02F0E4CF01F0E4CF00F037
:102710001200D9CFE5FFE1CFD9FF00C0E5FF01C02E
:10272000E5FF02C0E5FF03C0E5FF04C0E5FF05C00B
:10273000E5FF06C0E5FF07C0E5FF08C0E5FF09C0EB
:10274000E5FF0AC0E5FF020EDBCF00F0030EDBCF92
:1027500001F0040EDBCF02F0036A046A9EEC30F055
:10276000056EFE0A01E075D0D4EC2AF09EEC30F044
:10277000066E030E065CD8A05AD0060E065CD8B0D2
:1027800056D0FD0E0624076EFA6AFB6A0734FA3645
:10279000E834FA36FC0BA60FE56E270EFA22000E7F
:1027A000FB22E450F96ED9EF13F0EBEF13F004EFD6
:1027B00014F00050090F076E000E0120086E000E85
:1027C000022007C0E9FF08C0F3FFC1EC32F0036E3E
:1027D000F3CF04F02CD00050090F076E000E01203B
:1027E000086E000E0220096E020E0726000E082257
:1027F000092207C0E9FF08C0F3FF0950C1EC32F01D
:10280000036EF3CF04F013D00050070F076E000ED5
:102810000120086E000E022007C0E9FF08C0F3FF88
:1028200048EC33F0010B076E07C003F0046A045054
:10283000E56E0350E56EE56A0650E56E000EE56E46
:10284000190EE56E1A0EE56E6BEC2DF0070EE12603
:1028500086D1080E055CD8B082D1FA6AFB6A0534CD
:10286000FA36E834FA36FC0B780FE56E280EFA22B9
:10287000000EFB22E450F96E4CEF14F067EF14F0F9
:1028800079EF14F08BEF14F0B3EF14F0DFEF14F0E6
:10289000FEEF14F05BEF15F00050230F036E000EF7
:1028A0000120046E000E0220E56E0450E56E035018
:1028B000E56EC8EC15F0030EE126020EE56E00C0D1
:1028C000E9FF01C0F3FF0250C0EC33F048D10050E3
:1028D000330F036E000E0120046E000E0220E56E21
:1028E0000450E56E0350E56E9EEC18F0030EE126F1
:1028F00036D10050440F036E000E0120046E000E0E
:102900000220E56E0450E56E0350E56E9EEC18F073
:10291000030EE12624D10050090F036E000E0120A2
:10292000046E000E0220056E9EEC30F0066A076E03
:102930009EEC30F0096A06260950072206C0E5FF22
:1029400007C0F4FF03C0E9FF04C0F3FF055092EC99
:1029500033F0010EE56E00C0E9FF01C0F3FF025045
:10296000C0EC33F0FCD00050090F036E000E0120C4
:10297000046E000E0220056E020E0326000E0422D5
:1029800005229EEC30F0066A076E9EEC30F0096A74
:1029900006260950072206C0E5FF07C0F4FF03C062
:1029A000E9FF04C0F3FF055092EC33F0E56A00C084
:1029B000E9FF01C0F3FF0250C0EC33F0D0D000506B
:1029C000070F036E000E0120046E000E0220056E3C
:1029D0009EEC30F0010BF46E03C0E9FF04C0F3FF7E
:1029E000055048EC33F0FE0BF410E56E03C0E9FF30
:1029F00004C0F3FF0550C0EC33F0B1D09EEC30F0D2
:102A0000036E0050160F046E000E0120056E000EBE
:102A10000220066E04500C0F076E000E0520086E93
:102A2000000E0620096E0350D880E866D8900A6A26
:102A30000A360A50D880E866D8900A6A0A360A50E0
:102A4000010BF46E07C0E9FF08C0F3FF095048EC22
:102A500033F0FE0BF410E56E07C0E9FF08C0F3FF8A
:102A60000950C0EC33F00350010A01E078D0080EA1
:102A70000426000E05220622E56AF46AF66AF76A61
:102A800004C0E9FF05C0F3FF065037EC33F00050F7
:102A9000230F036E000E0120046E000E0220E56A73
:102AA000E56AE56E0450E56E0350E56EB7EC21F083
:102AB000050EE12654D09EEC30F0036A046E9EECC5
:102AC00030F0066A0326065004220050160F056EE9
:102AD000000E0120066E000E0220076E05500C0F3E
:102AE000086E000E0620096E000E07200A6E08C050
:102AF000E9FF09C0F3FF48EC33F0E880E56E08C059
:102B0000E9FF09C0F3FF0A50C0EC33F0080E0526B8
:102B1000000E0622072203C008F004C009F008C016
:102B2000E5FF09C0F4FFF66AF76A05C0E9FF06C0D1
:102B3000F3FF075037EC33F0230E0026000E01227E
:102B400002220450E56E0350E56E0250E56E01501E
:102B5000E56E0050E56E25EC27F0050EE126E4CF8A
:102B60000AF0E4CF09F0E4CF08F0E4CF07F0E4CFB7
:102B700006F0E4CF05F0E4CF04F0E4CF03F0E4CFB7
:102B800002F0E4CF01F0E4CF00F0E4CFD9FF12006F
:102B9000D9CFE5FFE1CFD9FF00C0E5FF01C0E5FFD8
:102BA00002C0E5FF03C0E5FF04C0E5FF05C0E5FF87
:102BB00006C0E5FF07C0E5FF08C0E5FF09C0E5FF67
:102BC0000AC0E5FF020EDBCF00F0030EDBCF01F001
:102BD000040EDBCF02F0036A046A9EEC30F0056E4F
:102BE000FE0A01E094D0D4EC2AF09EEC30F0066EA0
:102BF00006500EE00650010A1DE00650020A2CE0C5
:102C000006500A0A3BE006500B0A01E142D06DD0A3
:102C10000050060F076E000E0120086E000E022005
:102C200007C0E9FF08C0F3FFC1EC32F0036EF3CF39
:102C300004F05BD000500C0F076E000E0120086EF0
:102C4000000E022007C0E9FF08C0F3FFC1EC32F01C
:102C5000036EF3CF04F049D000500E0F076E000E44
:102C60000120086E000E022007C0E9FF08C0F3FF34
:102C7000C1EC32F0036EF3CF04F037D000C0E9FFAF
:102C800001C0F3FF0250C1EC32F0036EF3CF04F049
:102C90002CD00050020F076E000E0120086E000EAF
:102CA0000220096E07C0E9FF08C0F3FF095088EC55
:102CB00031F0F3CF08F0F4CF09F0E9CF0AF0085073
:102CC000076E0950086ED89008320732D890083243
:102CD00007320A50E840E840C00B08120A40E840BA
:102CE0003F0B0750036E0850046E0450E56E03500E
:102CF000E56EE56A0650E56E000EE56E540EE56E73
:102D0000FC0EE56E6BEC2DF0070EE126BDD00550F4
:102D100014E00550010A30E00550020A01E14BD0F1
:102D200005500A0A01E166D005500B0A01E17BD08B
:102D300005500C0A01E190D0A7D00050060F036E99
:102D4000000E0120046E000E0220056E9EEC30F095
:102D5000066A076E9EEC30F0096A062609500722C3
:102D600006C0E5FF07C0F4FF03C0E9FF04C0F3FF9E
:102D7000055092EC33F088D000500C0F036E000E1B
:102D80000120046E000E0220056E9EEC30F0066AF3
:102D9000076E9EEC30F0096A06260950072206C02D
:102DA000E5FF07C0F4FF03C0E9FF04C0F3FF0550CF
:102DB00092EC33F069D000500E0F036E000E01202C
:102DC000046E000E0220056E9EEC30F0066A076E5F
:102DD0009EEC30F0096A06260950072206C0E5FF7E
:102DE00007C0F4FF03C0E9FF04C0F3FF055092ECF5
:102DF00033F04AD09EEC30F0036A046E9EEC30F063
:102E0000066A0326065004220450E56E0350E56E60
:102E10000250E56E0150E56E0050E56E80EC2FF03B
:102E2000050EE12631D09EEC30F0036A046E9EEC74
:102E300030F0066A0326065004220450E56E035063
:102E4000E56E0250E56E0150E56E0050E56EB7ECA0
:102E500021F0050EE12618D09EEC30F0036A046ED6
:102E60009EEC30F0066A0326065004220450E56EFC
:102E70000350E56E0250E56E0150E56E0050E56EC0
:102E800025EC27F0050EE126E4CF0AF0E4CF09F0A7
:102E9000E4CF08F0E4CF07F0E4CF06F0E4CF05F08C
:102EA000E4CF04F0E4CF03F0E4CF02F0E4CF01F08C
:102EB000E4CF00F0E4CFD9FF1200800EE56E040EDF
:102EC000E56ED30EE56E26EC2BF0030EE126800EA8
:102ED000E56E040EE56EB30EE56E26EC2BF0030EE8
:102EE000E126800EE56E040EE56ED50EE56E26EC4D
:102EF0002BF0030EE126800EE56E040EE56EB50E96
:102F0000E56E26EC2BF0030EE126800EE56E040E36
:102F1000E56ED70EE56E26EC2BF0030EE126800E53
:102F2000E56E040EE56EB70EE56E26EC2BF0030E93
:102F3000E126800EE56E040EE56ED90EE56E26ECF8
:102F40002BF0030EE126800EE56E040EE56EB90E41
:102F5000E56E26EC2BF0030EE126800EE56E040EE6
:102F6000E56EDB0EE56E26EC2BF0030EE126800EFF
:102F7000E56E040EE56EBB0EE56E26EC2BF0030E3F
:102F8000E126800EE56E040EE56EDD0EE56E26ECA4
:102F90002BF0030EE126800EE56E040EE56EBD0EED
:102FA000E56E26EC2BF0030EE126800EE56E040E96
:102FB000E56EDF0EE56E26EC2BF0030EE126800EAB
:102FC000E56E040EE56EBF0EE56E26EC2BF0030EEB
:102FD000E126800EE56E040EE56EE10EE56E26EC50
:102FE0002BF0030EE126800EE56E040EE56EC10E99
:102FF000E56E26EC2BF0030EE126800EE56E040E46
:10300000E56EE30EE56E26EC2BF0030EE126800E56
:10301000E56E040EE56EC30EE56E26EC2BF0030E96
:10302000E126800EE56E040EE56EE50EE56E26ECFB
:103030002BF0030EE126800EE56E040EE56EC50E44
:10304000E56E26EC2BF0030EE126800EE56E040EF5
:10305000E56EE70EE56E26EC2BF0030EE126800E02
:10306000E56E040EE56EC70EE56E26EC2BF0030E42
:10307000E126800EE56E040EE56EE90EE56E26ECA7
:103080002BF0030EE126800EE56E040EE56EC90EF0
:10309000E56E26EC2BF0030EE126800EE56E040EA5
:1030A000E56EEB0EE56E26EC2BF0030EE126800EAE
:1030B000E56E040EE56ECB0EE56E26EC2BF0030EEE
:1030C000E126800EE56E040EE56EED0EE56E26EC53
:1030D0002BF0030EE126800EE56E040EE56ECD0E9C
:1030E000E56E26EC2BF0030EE126800EE56E040E55
:1030F000E56EEF0EE56E26EC2BF0030EE126800E5A
:10310000E56E040EE56ECF0EE56E26EC2BF0030E99
:10311000E126800EE56E040EE56EF10EE56E26ECFE
:103120002BF0030EE126800EE56E040EE56ED10E47
:10313000E56E26EC2BF0030EE1261200D9CFE5FF59
:10314000E1CFD9FF00C0E5FF01C0E5FF02C0E5FF08
:1031500003C0E5FF04C0E5FF05C0E5FF06C0E5FFCD
:1031600007C0E5FF08C0E5FF020EDBCF00F0030E4D
:10317000DBCF01F0040EDBCF02F0036A046A9EECA1
:1031800030F0056EFE0A01E075D0D4EC2AF09EEC1A
:1031900030F0066E040E065CD8B05AD0FA6AFB6AAC
:1031A0000634FA36E834FA36FC0BBA0FE56E310E07
:1031B000FA22000EFB22E450F96EE5EF18F0F1EF71
:1031C00018F004EF19F017EF19F000C0E9FF01C083
:1031D000F3FF025048EC33F0076E07C003F0046AB7
:1031E00037D00050010F076E000E0120086E000E50
:1031F000022007C0E9FF08C0F3FF48EC33F0076E78
:1032000007C003F0046A24D00050020F076E000EBE
:103210000120086E000E022007C0E9FF08C0F3FF7E
:1032200048EC33F0076E07C003F0046A11D0005079
:103230000F0F076E000E0120086E000E022007C05F
:10324000E9FF08C0F3FFC1EC32F0036EF3CF04F0E6
:103250000450E56E0350E56EE56A0650E56E000E1B
:10326000E56E3E0EE56EE60EE56E6BEC2DF0070E9C
:10327000E12683D0040E055CD8B07FD0FA6AFB6AE1
:103280000534FA36E834FA36FC0B9A0FE56E320E46
:10329000FA22000EFB22E450F96E55EF19F062EFAE
:1032A00019F08DEF19F0A3EF19F09EEC30F0036EDA
:1032B00003C0E5FF00C0E9FF01C0F3FF0250C0EC0E
:1032C00033F05BD00050010F036E000E0120046E3E
:1032D000000E0220056E9EEC30F0066E06C0E5FF83
:1032E00003C0E9FF04C0F3FF0550C0EC33F0065003
:1032F000D8A443D00050030F036E000E0120046ECB
:10330000000E0220E56AF46AF66AF76A03C0E9FF74
:1033100004C0F3FF37EC33F030D00050020F036EDF
:10332000000E0120046E000E0220056E9EEC30F0AF
:10333000066E06C0E5FF03C0E9FF04C0F3FF0550B9
:10334000C0EC33F01AD00F0E0026000E012202222C
:103350009EEC30F0036A046E9EEC30F0066A0326A1
:103360000650042203C0E5FF04C0F4FF00C0E9FFDB
:1033700001C0F3FF025092EC33F0E4CF08F0E4CF49
:1033800007F0E4CF06F0E4CF05F0E4CF04F0E4CF9B
:1033900003F0E4CF02F0E4CF01F0E4CF00F0E4CF9B
:1033A000D9FF120000C0E5FF01C0E5FF02C0E5FF44
:1033B00003C0E5FF04014251D8B40CD1A3A81DD02D
:1033C000A4A81BD00301D1510301CF1905E176EC6C
:1033D00033F00301CF6BFED0000E0301D125006E48
:1033E000016A040E012200C0E9FF01C0EAFFEFCF2D
:1033F000CBF3D12BCBC373FFEDD0A3AAEBD0A4AA00
:10340000E9D071A205D00301D08176EC33F0E2D08F
:1034100071A405D00301D08376EC33F0DBD071A02A
:1034200048D074CFCBF343C400F0016A008ECBC305
:1034300002F0036A0250001803E10350011801E092
:1034400004D00301D0897196C5D00301CB5104E0AB
:10345000CB510401431929E10301D099719603016D
:10346000CB5103E00301D09702D00301D087CBC337
:10347000D4F3CDC3D5F30301CD51006E0004030195
:10348000D66F600E0301D525006E016A000E012281
:1034900000C0E9FF01C0EAFFCBC3EFFFD52BD55138
:1034A000800A02E10301D56B95D00301D0997186A2
:1034B00091D074CFCBF30301D0A921D043C400F045
:1034C000016A008ECBC302F0036A0250001803E1C8
:1034D0000350011801E011D0A39A7198929A030148
:1034E000CF5104E1736A76EC33F007D000C473FF68
:1034F000010E0301D16FA3886DD071866BD00301DB
:10350000CB510301D4270301D5510301D6191BE187
:103510000301D4510CE1D5C3CDF30301D0B712D0D0
:10352000A39A7198929A736A76EC33F00BD00301E8
:10353000D085D0B707D0A39A7198929A010E736E76
:1035400076EC33F047D00301D5510301CE1908E1E1
:103550000301CE510301CD1903E076EC33F03AD0EC
:10356000CDC300F0016A004A012AE56A800EE56ECB
:103570000150E56E0050E56EDFEC25F0006E040EA4
:10358000E12600500301CC6F0301D5190FE1CBC335
:1035900000F01F0E00140301D66F006E020E00240F
:1035A000D66F0301CD510301D627D69FD5C300F0B6
:1035B0000301D52B016A600E0026000E012200C017
:1035C000E9FF01C0EAFFCBC3EFFFD551800A02E15A
:1035D0000301D56BE4CF03F0E4CF02F0E4CF01F0B8
:1035E000E4CF00F01200D9CFE5FFE1CFD9FF00C052
:1035F000E5FF01C0E5FF02C0E5FF03C0E5FF04C031
:10360000E5FF05C0E5FF06C0E5FF07C0E5FF020EC8
:10361000DBCF00F0030EDBCF01F0040EDBCF02F0B6
:10362000050EDBCF03F0060EDBCF04F0070EDBCF79
:1036300005F0080EDBCF06F0090EDBCF07F00050D7
:1036400003019E6F01509F6F0250A06F0350A16F46
:1036500004500301A26F0550A36F0650A46F0750DA
:10366000A56F03019E510301A403F4CF01F0F3CF32
:1036700000F000500301A86F0150A96F03019E5193
:103680000301A203F4CF01F0F3CF00F000500301D7
:10369000A66F0150A76F0301A1510301A203F3CF4D
:1036A00000F00301A95100260050A96F0301A051A9
:1036B0000301A303F3CF01F00150002600500301E2
:1036C000A96F0301A0510301A203F4CF01F0F3CFCE
:1036D00000F00301A8510026A95101220050A86F53
:1036E0000150A96F03019F510301A303F4CF03F01D
:1036F000F3CF02F0025000260350012200500301D4
:10370000A86F0150A96F03019F510301A403F3CFD8
:1037100000F000500301AD6F03019F510301A203AC
:10372000F4CF01F0F3CF00F000500301AB6F015074
:10373000AC6F03019E510301A503F3CF00F00050CD
:103740000301B16F03019E510301A303F4CF01F004
:10375000F3CF00F000500301AF6F0150B06F0301D1
:10376000AA6B0301AE6B0301AA510301A625006EEB
:103770000301AB510301A721016E0301AC51030109
:10378000A821026E0301AD510301A921036E00506F
:10379000A66F0150A76F0250A86F0350A96F0301D5
:1037A000AE510301A625006E0301AF510301A7210D
:1037B000016E0301B0510301A821026E0301B15152
:1037C0000301A921036E03C0E9FF02C0F4FF01C099
:1037D000F3FF0050E4CF07F0E4CF06F0E4CF05F0AC
:1037E000E4CF04F0E4CF03F0E4CF02F0E4CF01F043
:1037F000E4CF00F0E4CFD9FF1200D9CFE5FFE1CF4D
:10380000D9FF00C0E5FF01C0E5FF02C0E5FF03C02E
:10381000E5FF04C0E5FF05C0E5FF06C0E5FF07C002
:10382000E5FF08C0E5FF09C0E5FF0AC0E5FF0BC0E2
:10383000E5FF0CC0E5FF0DC0E5FF0EC0E5FF0FC0C2
:10384000E5FF020EDBCF00F0030EDBCF01F0040E2C
:10385000DBCF02F0050EDBCF03F0060EDBCF04F06A
:10386000070EDBCF05F0080EDBCF06F0200E076E4B
:10387000086A06C009F00A6A0B6A0C6AE56AE56A1A
:10388000E56A0950E56E0350E56E0250E56E0150A1
:10389000E56E0050E56E46EC1EF00D6E080EE1265A
:1038A000300E0D263A0E0D5C05E30D500E6E270E00
:1038B0000E240D6EFF0E07260822200E07240E6E22
:1038C000030E08200F6E0EC0E9FF0FC0EAFF0DC007
:1038D000EFFF0C50E56E0B50E56E0A50E56E095097
:1038E000E56E0350E56E0250E56E0150E56E005046
:1038F000E56E9AEC20F0006EF3CF01F0F4CF02F009
:10390000E9CF03F0080EE126005001100210031069
:10391000D8A4AFD707C000F008C001F004C002F07F
:1039200005C003F000C004F001C005F0004A012A00
:10393000200E0426030E052204C0E9FF05C0EAFF9D
:10394000EFCF04F002C0E9FF03C0EAFF04C0EFFFBD
:10395000024A032A000E015C02E1200E005CE2E351
:1039600002C0E9FF03C0EAFF000EEF6AE4CF0FF0E8
:10397000E4CF0EF0E4CF0DF0E4CF0CF0E4CF0BF089
:10398000E4CF0AF0E4CF09F0E4CF08F0E4CF07F089
:10399000E4CF06F0E4CF05F0E4CF04F0E4CF03F089
:1039A000E4CF02F0E4CF01F0E4CF00F0E4CFD9FFA0
:1039B0001200D9CFE5FFE1CFD9FF00C0E5FF01C07C
:1039C000E5FF02C0E5FF03C0E5FF04C0E5FF05C059
:1039D000E5FF06C0E5FF07C0E5FF08C0E5FF09C039
:1039E000E5FF0AC0E5FF0BC0E5FF0CC0E5FF0DC019
:1039F000E5FF020EDBCF00F0030EDBCF01F0040E7B
:103A0000DBCF02F0050EDBCF03F0060EDBCF04F0B8
:103A1000070EDBCF05F0080EDBCF06F0090EDBCF7B
:103A200007F0D88003AED890086A083608500FE037
:103A3000031C0C6E021C0B6E011C0A6E001C096E2E
:103A4000092A0DE10A2A0BE10B4A0C2A08D000C012
:103A500009F001C00AF002C00BF003C00CF0D880DE
:103A600007AED890006A003600500FE0071C0D6EBC
:103A7000061C036E051C026E041C016E012A0DE17A
:103A8000022A0BE1034A0D2A08D004C001F005C048
:103A900002F006C003F007C00DF00D50E56E0350B4
:103AA000E56E0250E56E0150E56E0C50E56E0B5070
:103AB000E56E0A50E56E0950E56E9AEC20F0016E55
:103AC000F3CF02F0F4CF03F0E9CF04F0080EE126C3
:103AD0000050081A085016E0041C076E031C066EFE
:103AE000021C056E011C006E002A04E1052A02E199
:103AF000064A072A07C0E9FF06C0F4FF05C0F3FF26
:103B0000005007D004C0E9FF03C0F4FF02C0F3FF78
:103B10000150E4CF0DF0E4CF0CF0E4CF0BF0E4CF94
:103B20000AF0E4CF09F0E4CF08F0E4CF07F0E4CFE7
:103B300006F0E4CF05F0E4CF04F0E4CF03F0E4CFE7
:103B400002F0E4CF01F0E4CF00F0E4CFD9FF12009F
:103B5000A1A29BD0B190A19204013951010A2DE19B
:103B60000301C75103E18996899414D00301C75119
:103B7000010A03E1899289900DD00301C751020A1D
:103B800003E18A98899C06D00301C751030A02E128
:103B90008A96899E04013A51FF0804017E6FFF0E48
:103BA00004013B5504017F6FB36E7E51B26EA1924A
:103BB000B180020E0401396F68D004013951020A44
:103BC0002DE10301C75103E18996898414D00301D3
:103BD000C751010A03E1899289800DD00301C751C1
:103BE000020A03E18A98898C06D00301C751030AAF
:103BF00002E18A96898E04013A51FF0804017E6F22
:103C0000FF0E04013B5504017F6FB36E7E51B26E0F
:103C1000A192B180030E0401396F37D004013951EC
:103C2000030A2DE10301C75103E18996899414D059
:103C30000301C751010A03E1899289900DD0030164
:103C4000C751020A03E18A98899C06D00301C75133
:103C5000030A02E18A96899E04013A51FF08040191
:103C60007E6FFF0E04013B5504017F6FB36E7E51E2
:103C7000B26EA192B180040E0401396F06D0040126
:103C80003951040A02E10401396B1200D9CFE5FF72
:103C9000E1CFD9FF00C0E5FF01C0E5FF02C0E5FFAD
:103CA00003C0E5FF04C0E5FF05C0E5FF06C0E5FF72
:103CB00007C0E5FF08C0E5FF09C0E5FF0AC0E5FF52
:103CC000020EDBCF00F0030EDBCF01F0040EDBCFE2
:103CD00002F0050EDBCF03F0060EDBCF04F0070E7B
:103CE000DBCF05F0080EDBCF06F0090EDBCF07F0C7
:103CF000086A045005100610071005E1E968F46829
:103D0000F368E86847D0096A0750800BE8440A6EF8
:103D10000A501BE1045004260536063607360750C4
:103D2000035C08E10650025C05E10550015C02E11C
:103D30000450005C06E2D8900732063205320432A5
:103D400004D0092A09C008F0DFD70750035C08E156
:103D50000650025C05E10550015C02E10450005C84
:103D600008E30450005E0550015A0650025A0750FD
:103D7000035AD890073206320532043208C009F0DF
:103D800008060950E2E103C0E9FF02C0F4FF01C0E8
:103D9000F3FF0050E4CF0AF0E4CF09F0E4CF08F0DD
:103DA000E4CF07F0E4CF06F0E4CF05F0E4CF04F071
:103DB000E4CF03F0E4CF02F0E4CF01F0E4CF00F071
:103DC000E4CFD9FF1200D9CFE5FFE1CFD9FF00C082
:103DD000E5FF01C0E5FF02C0E5FF03C0E5FF04C049
:103DE000E5FF05C0E5FF06C0E5FF07C0E5FF020EE1
:103DF000DBCF00F0030EDBCF01F0040EDBCF02F0CF
:103E000000500B0F036E000E0120046E000E022006
:103E1000E56AF46AF66AF76A03C0E9FF04C0F3FFD3
:103E200037EC33F00050070F036E000E0120046ED4
:103E3000000E0220056E0050030F066E000E0120DA
:103E4000076E000E0220E56AF46AF66AF76A06C099
:103E5000E9FF07C0F3FF37EC33F0E56AF46AF66A6E
:103E6000F76A03C0E9FF04C0F3FF055037EC33F0F5
:103E70000050010F036E000E0120046E000E0220A0
:103E8000056E0050020F066E000E0120076E000E38
:103E90000220E56A06C0E9FF07C0F3FFC0EC33F07B
:103EA000E56A03C0E9FF04C0F3FF0550C0EC33F03E
:103EB000E56A00C0E9FF01C0F3FF0250C0EC33F037
:103EC000E4CF07F0E4CF06F0E4CF05F0E4CF04F050
:103ED000E4CF03F0E4CF02F0E4CF01F0E4CF00F050
:103EE000E4CFD9FF120025642025640A0000D9CF51
:103EF000E5FFE1CFD9FF00C0E5FF01C0E5FF02C04B
:103F0000E5FF03C0E5FF04C0E5FF05C0E5FF06C00F
:103F1000E5FF07C0E5FF08C0E5FF09C0E5FF0AC0EF
:103F2000E5FF020EDBCF00F0030EDBCF01F0040E45
:103F3000DBCF02F0050EDBCF03F0060EDBCF04F083
:103F4000070EDBCF05F00038E8441F0B066E076A4A
:103F5000BD0E0626030E072206C0E9FF07C0EAFFD2
:103F6000EFCF08F00050096E070E0916010E0A6E19
:103F700009500DE006E6E86CD8900A36010FFDE323
:103F800006D0D8900ABED8800A32010FFBE3085051
:103F90000A1206C0E9FF07C0EAFF0AC0EFFF400EA1
:103FA0000024066E076A030E072206C0E9FF07C059
:103FB000EAFF01C0EFFF016A230E00260F0E012267
:103FC000800E025E070E02160238F00B036E070E1B
:103FD00005160550032600C0E9FF01C0EAFF03C033
:103FE000EFFFE4CF0AF0E4CF09F0E4CF08F0E4CF2C
:103FF00007F0E4CF06F0E4CF05F0E4CF04F0E4CF1F
:1040000003F0E4CF02F0E4CF01F0E4CF00F0E4CF1E
:10401000D9FF120000C0E5FF01C0E5FF02C0E5FFC7
:1040200003C0E5FF0301CE510301CD1901E166D0C4
:10403000CEC300F0002A009E016A600E0026000E2A
:10404000012200C0E9FF01C0EAFFEFCFD8F31F0E45
:104050000301D817CEC3D7F3D8510301D727D751BF
:10406000006E020E0024D76FD79F9EEC30F0006EDA
:10407000005003E1006A002A01D0006A9EEC30F093
:104080000301D86FD8C301F0800E0116D8C302F027
:104090001F0E021602C003F002C0D8F3035003E162
:1040A000CDC3CEF33ED000501EE0015025E09EEC83
:1040B00030F0006E0301D851026E0204D86F005038
:1040C000420A1AE000504E0A03E1E9EC2CF014D049
:1040D0000050460A03E1AAEC33F00ED00050490A22
:1040E0000BE1FF0009D0CEC3D9F3015003E011EC7E
:1040F0002FF002D049EC2FF0D7C3CEF304013F518B
:104100000401401906E00301CF5103E1D0EC22F095
:1041100008D092BA06D00301CF5103E172B276EC17
:1041200033F0E4CF03F0E4CF02F0E4CF01F0E4CFCA
:1041300000F01200D9CFE5FFE1CFD9FF00C0E5FFC5
:1041400001C0E5FF02C0E5FF03C0E5FF04C0E5FFD5
:1041500005C0E5FF06C0E5FF07C0E5FF08C0E5FFB5
:1041600009C0E5FF0AC0E5FF0BC0E5FF0CC0E5FF95
:104170000DC0E5FF020EDBCF00F0030EDBCF01F038
:10418000040EDBCF02F0050EDBCF03F0060EDBCF13
:1041900004F0070EDBCF05F0080EDBCF06F0090EAA
:1041A000DBCF07F0086A096A0A6A0B6A200E0C6EF8
:1041B0000350800BE8440D6E005000260136023695
:1041C00003360850082609360A360B360D50D8A497
:1041D000088007500B5C08E106500A5C05E10550B9
:1041E000095C02E10450085C09E30450085E0550D4
:1041F000095A06500A5A07500B5A00800C040D6EDB
:104200000DC00CF00D50D4E103C0E9FF02C0F4FF73
:1042100001C0F3FF0050E4CF0DF0E4CF0CF0E4CF89
:104220000BF0E4CF0AF0E4CF09F0E4CF08F0E4CFDC
:1042300007F0E4CF06F0E4CF05F0E4CF04F0E4CFDC
:1042400003F0E4CF02F0E4CF01F0E4CF00F0E4CFDC
:10425000D9FF120000C0E5FF01C0E5FF03C0E5FF84
:1042600004C0E5FF05C0E5FF06C0E5FF07C0E5FFA8
:1042700008C0E5FF09C0E5FF0AC0E5FF0BC0E5FF88
:10428000BBC300F0BCC301F00301BB3F01D0BC2B9A
:104290000050E56E68EC33F0E652076E046A056A7A
:1042A000066ABBC300F0BCC301F00301BB3F01D0F1
:1042B000BC2B0050E56E68EC33F0E6520B6A0A6ED8
:1042C000086A0850041205120A5006120B50071211
:1042D000BBC300F0BCC301F00301BB3F01D0BC2B4A
:1042E0000050E56E68EC33F0E652036E006A03C0DE
:1042F00001F0E86A03BEFF0E086E096E005004125A
:10430000015005120850061209500712BBC300F0F5
:10431000BCC301F00301BB3F01D0BC2B0050E56ED4
:1043200068EC33F0E652016A0412015005120612DD
:10433000071207C0E9FF06C0F4FF05C0F3FF0450F1
:10434000E4CF0BF0E4CF0AF0E4CF09F0E4CF08F0BB
:10435000E4CF07F0E4CF06F0E4CF05F0E4CF04F0BB
:10436000E4CF03F0E4CF01F0E4CF00F01200D9CFA6
:10437000E5FFE1CFD9FF00C0E5FF01C0E5FF02C0C6
:10438000E5FF03C0E5FF04C0E5FF05C0E5FF06C08B
:10439000E5FF07C0E5FF08C0E5FF0BC0E5FF0CC067
:1043A000E5FF0DC0E5FF020EDBCF00F0030EDBCF13
:1043B00001F0040EDBCF02F0050EDBCF03F0060E9A
:1043C000DBCF04F003C0E5FF04C0F4FF00C0E9FF49
:1043D00001C0F3FF025092EC33F00050020F056E63
:1043E000000E0120066E000E0220076EE86A04BE71
:1043F000FF0E086E04500C6E0C2608340D6ED8901B
:104400000C360D360344E844FC0B0B6E0350E844B5
:10441000E844030B0C12E56A0BC0F4FF0CC0F6FF76
:104420000DC0F7FF05C0E9FF06C0F3FF075037ECEA
:1044300033F0080E0026000E01220222E56AF46A1B
:10444000F66AF76A00C0E9FF01C0F3FF025037ECDB
:1044500033F0E4CF0DF0E4CF0CF0E4CF0BF0E4CF79
:1044600008F0E4CF07F0E4CF06F0E4CF05F0E4CFA6
:1044700004F0E4CF03F0E4CF02F0E4CF01F0E4CFA6
:1044800000F0E4CFD9FF1200D9CFE5FFE1CFD9FF8B
:1044900000C0E5FF01C0E5FF02C0E5FF03C0E5FF86
:1044A00004C0E5FF05C0E5FF06C0E5FF07C0E5FF66
:1044B000020EDBCF00F0030EDBCF01F0040EDBCFEA
:1044C00002F0050EDBCF03F002C006F00650046ECA
:1044D000800A33E100C0E9FF01C0F3FF025002ECA3
:1044E00032F0056EF3CF06F0F4CF07F003C0E5FF1E
:1044F00005C0E9FF06C0F3FF0750C0EC33F000C071
:10450000E9FF01C0F3FF025002EC32F0056EF3CF79
:1045100006F0F4CF07F0052A02E3064A072A05C091
:10452000E5FF06C0F4FF07C0F6FF00C0E9FF01C0C9
:10453000F3FF025059EC33F020D004C000F000AA81
:104540001CD0007A0050046E04E10350F9EC33F003
:1045500014D00450010A04E1035002EC00F00DD025
:1045600004500F0A04E103501AEC30F006D0045056
:104570000E0A03E1035009EC34F0E4CF07F0E4CF76
:1045800006F0E4CF05F0E4CF04F0E4CF03F0E4CF8D
:1045900002F0E4CF01F0E4CF00F0E4CFD9FF120045
:1045A00000C0E5FF01C0E5FF02C0E5FF03C0E5FF75
:1045B00072A277D0A8EC31F0006E005005E1040142
:1045C000406B04013F6B6DD040C401F000500126E8
:1045D000A8EC31F0026E00060250230A1FE1010E22
:1045E000005CD8A05CD0A8EC31F0036E690A03E14E
:1045F000E9EC2FF054D00350720A03E176EC33F06B
:104600004ED00350730A01E04AD0928A7186A38A81
:10461000A398745074507198718841D00250430A25
:1046200005E00250420A01E03AD001D0008E0301B9
:10463000D16B00C0D2F300500401006F0301D12BF5
:1046400004014051011814E0A8EC31F0006E0301A0
:10465000D227000E0301D125026E036A040E032245
:1046600002C0E9FF03C0EAFF00C0EFFFD12BE8D78B
:10467000000E0301D125006E026A040E022203011E
:10468000D21D036E032A00C0E9FF02C0EAFF03C087
:10469000EFFF0301D12BD1C3CFF30301C96B01C0DD
:1046A00040F4E4CF03F0E4CF02F0E4CF01F0E4CF34
:1046B00000F01200D9CFE5FFE1CFD9FF00C0E5FF40
:1046C00001C0E5FF02C0E5FF03C0E5FF04C0E5FF50
:1046D00005C0E5FF06C0E5FF020EDBCF00F0030ECC
:1046E000DBCF01F0040EDBCF02F0050EDBCF03F0D1
:1046F00003C004F0056A0350D8B453D000C0E9FFEA
:1047000001C0F3FF025048EC33F0066E430A03E1A8
:10471000010E056E038E0406002A02E3014A022AF6
:10472000A39A7198929AA398A4A8FED77280736AEC
:104730000000A4A8FED7729003C073FF0000A4A8D5
:10474000FED7055005E0420E736E0324056E05D0BA
:10475000620E736E620E0324056E04C003F00350F4
:1047600015E00000A4A8FED700C0E9FF01C0F3FFD8
:10477000025048EC33F0046E04C073FF0450052669
:104780000306002A02E3014A022AE9D70000A4A88E
:10479000FED7051C736E732A0000A4A8FED776EC22
:1047A00033F0E4CF06F0E4CF05F0E4CF04F0E4CF3B
:1047B00003F0E4CF02F0E4CF01F0E4CF00F0E4CF67
:1047C000D9FF120000C0E5FF01C0E5FF02C0E5FF10
:1047D00003C0E5FF04C0E5FF006ABD0E0024016EC2
:1047E000026A030E022201C0E9FF02C0EAFFEF6A7B
:1047F000002A020E005CF1E3006A0050020DF45042
:10480000026EF3CF01F0E00E0124036E000E0220D1
:10481000046E03C0E9FF04C0EAFFEE6AEF6A5A0EB5
:104820000124036E040E0220046E03C0E9FF04C0DD
:10483000EAFFEE6AEF6A930E0124036E040E022073
:10484000046E03C0E9FF04C0EAFFEE6AEF6AB30E2C
:104850000124036E040E0220046E03C0E9FF04C0AD
:10486000EAFFEE6AEF6AD30E0126040E022201C0AF
:10487000E9FF02C0EAFFEE687F0EEF6E230E002410
:10488000016E026A0F0E022201C0E9FF02C0EAFFB8
:10489000EF68002A100E005CD8A0AFD7AF0EC06E34
:1048A000C16A010EC26EC282E4CF04F0E4CF03F00D
:1048B000E4CF02F0E4CF01F0E4CF00F01200432097
:1048C000412025642025640A0000D9CFE5FFE1CF0F
:1048D000D9FF00C0E5FF01C0E5FF02C0E5FF03C04E
:1048E000E5FF04C0E5FF05C0E5FF06C0E5FF07C022
:1048F000E5FF08C0E5FF09C0E5FF0AC0E5FF0BC002
:10490000E5FF0CC0E5FF020EDBCF00F0030EDBCFAE
:1049100001F0040EDBCF02F0050EDBCF03F0060E34
:10492000DBCF04F0070EDBCF05F0080EDBCF06F07F
:10493000090EDBCF07F002500A6E0150096E0050DD
:10494000086E06C00BF007C00CF0FF0E062607220B
:104950000B500C101AE003C0E9FF04C0F3FF055030
:1049600048EC33F00B6E032A02E3044A052A0BC01D
:10497000E5FF08C0E9FF09C0F3FF0A50C0EC33F0BF
:10498000082ADFE3094A0A2ADCD702C0F4FF01C083
:10499000F3FF0050E4CF0CF0E4CF0BF0E4CF0AF0CB
:1049A000E4CF09F0E4CF08F0E4CF07F0E4CF06F05D
:1049B000E4CF05F0E4CF04F0E4CF03F0E4CF02F05D
:1049C000E4CF01F0E4CF00F0E4CFD9FF1200D9CF5B
:1049D000E5FFE1CFD9FF00C0E5FF01C0E5FF02C060
:1049E000E5FF03C0E5FF04C0E5FF05C0E5FF06C025
:1049F000E5FF07C0E5FF020EDBCF00F0030EDBCFC3
:104A000001F0040EDBCF02F0050EDBCF03F040C453
:104A100041F404013F510401415F4151046E04041B
:104A2000416F03C004F0056A030E0426D8B0052ABE
:104A300041C406F0076A0750800FF36E0550800FDF
:104A4000F35C02E10450065C02E2E8682ED0020E3C
:104A5000035C02E2E86A29D003060350E56E27EC06
:104A60002EF0E652046A0350045C14E20450002461
:104A7000056EE86A0120066EE86A022005C0E9FFBB
:104A800006C0F3FF48EC33F0042AE56E27EC2EF065
:104A9000E652E9D740C441F404013F510401415FAB
:104AA0004151006E0004416FE86AE4CF07F0E4CFA3
:104AB00006F0E4CF05F0E4CF04F0E4CF03F0E4CF58
:104AC00002F0E4CF01F0E4CF00F0E4CFD9FF120010
:104AD000D9CFE5FFE1CFD9FF00C0E5FF01C0E5FF79
:104AE00002C0E5FF03C0E5FF04C0E5FF05C0E5FF28
:104AF000020EDBCF00F0030EDBCF01F0040EDBCFA4
:104B000002F00050020DF450036EF3CF00F05A0E85
:104B10000024046E040E0320056E04C0E9FF05C0E6
:104B2000EAFF01C0EEFF02C0EFFF930E0024046E07
:104B3000040E0320056E04C0E9FF05C0EAFFEECFB6
:104B400004F0EFCF05F00150045C016E02500558EF
:104B5000026E000E0026030E032200C0E9FF03C010
:104B6000EAFF01C0EEFF02C0EFFFD88002AED8908E
:104B700004E3021E016CD8B4022A0250800F800F99
:104B800002E1030E015C02E2016A026A01500210B6
:104B900007E100C0E9FF03C0EAFF000EEE6AEF6A1A
:104BA000E4CF05F0E4CF04F0E4CF03F0E4CF02F06B
:104BB000E4CF01F0E4CF00F0E4CFD9FF1200D9CF69
:104BC000E5FFE1CFD9FF00C0E5FF01C0E5FF02C06E
:104BD000E5FF03C0E5FF04C0E5FF05C0E5FF06C033
:104BE000E5FF020EDBCF00F0030EDBCF01F0040E79
:104BF000DBCF02F0050EDBCF03F0D88001AED890FA
:104C0000046A0436045007E0011C066E001C056EA1
:104C1000054A062A04D000C005F001C006F0D8807D
:104C200003AED89007E3031C016E021C006E004A1D
:104C3000012A04D002C000F003C001F00150E56E6B
:104C40000050E56E0650E56E0550E56E7DEC29F0EE
:104C5000006EF3CF01F0040EE12604500AE0011CBF
:104C6000036E001C026E024A032A03C0F3FF0250C7
:104C700003D001C0F3FF0050E4CF06F0E4CF05F00D
:104C8000E4CF04F0E4CF03F0E4CF02F0E4CF01F08E
:104C9000E4CF00F0E4CFD9FF1200D9CFE5FFE1CF98
:104CA000D9FF00C0E5FF01C0E5FF02C0E5FF03C07A
:104CB000E5FF04C0E5FF05C0E5FF020EDBCF00F015
:104CC000030EDBCF01F0040EDBCF02F0050EDBCFCD
:104CD00003F0BBC304F0BCC305F00301BB3F01D02C
:104CE000BC2B0350E56E0450E56E74EC30F0E652D8
:104CF000E652BBC304F0BCC305F00301BB3F01D0C7
:104D0000BC2B0250056EE56E0450E56E74EC30F07D
:104D1000E652E652BBC304F0BCC305F00301BB3F3F
:104D200001D0BC2B0150E56E0450E56E74EC30F000
:104D3000E652E652BBC304F0BCC305F00301BB3F1F
:104D400001D0BC2B0050E56E0450E56E74EC30F0E1
:104D5000E652E652E4CF05F0E4CF04F0E4CF03F0EE
:104D6000E4CF02F0E4CF01F0E4CF00F0E4CFD9FFCC
:104D70001200D9CFE5FFE1CFD9FF00C0E5FF01C0A8
:104D8000E5FF02C0E5FF03C0E5FF04C0E5FF05C085
:104D9000E5FF06C0E5FF020EDBCF00F0030EDBCF20
:104DA00001F00038E8441F0B026E036ABD0E0226B4
:104DB000030E032202C0E9FF03C0EAFFEFCF04F0B5
:104DC0000050056E070E0516010E066E05500DE02B
:104DD00006E6E86CD8900636010FFDE306D0D890C1
:104DE00006BED8800632010FFBE30450061202C053
:104DF000E9FF03C0EAFF06C0EFFF400E0024026E89
:104E0000036A030E032202C0E9FF03C0EAFF01C0E8
:104E1000EFFF016A230E00260F0E012200C0E9FFFA
:104E200001C0EAFFFF0EEF68E4CF06F0E4CF05F023
:104E3000E4CF04F0E4CF03F0E4CF02F0E4CF01F0DC
:104E4000E4CF00F0E4CFD9FF1200D9CFE5FFE1CFE6
:104E5000D9FF00C0E5FF01C0E5FF02C0E5FF03C0C8
:104E6000E5FF04C0E5FF05C0E5FF08C0E5FF09C098
:104E7000E5FF0AC0E5FF020EDBCF00F0030EDBCF3B
:104E800001F0040EDBCF02F0050EDBCF03F0060EBF
:104E9000DBCF04F003C0E5FF04C0F4FF00C0E9FF6E
:104EA00001C0F3FF025092EC33F0020E0026000E18
:104EB0000122022204BEFF0E056E0450096E09266F
:104EC00005340A6ED89009360A360344E844FC0BD0
:104ED000086E0350E844E844030B0912E56A08C071
:104EE000F4FF09C0F6FF0AC0F7FF00C0E9FF01C0E8
:104EF000F3FF025037EC33F0E4CF0AF0E4CF09F0CF
:104F0000E4CF08F0E4CF05F0E4CF04F0E4CF03F001
:104F1000E4CF02F0E4CF01F0E4CF00F0E4CFD9FF1A
:104F20001200D9CFE5FFE1CFD9FF00C0E5FF01C0F6
:104F3000E5FF02C0E5FF03C0E5FF04C0E5FF05C0D3
:104F4000E5FF06C0E5FF020EDBCF00F0030EDBCF6E
:104F500001F0040EDBCF02F00301C85119E12AEC85
:104F600021F0036EF3CF04F0F4CF05F0E9CF06F0A3
:104F700003C0E5FF04C0F4FF05C0F6FF06C0F7FF5D
:104F800000C0E9FF01C0F3FF025037EC33F01ED040
:104F90000301C851010A1AE100C0E9FF01C0F3FF93
:104FA000025088EC31F0006EF3CF01F0F4CF02F044
:104FB000E9CF03F00350E56E0250E56E0150E56E57
:104FC0000050E56E4DEC26F0040EE126E4CF06F02D
:104FD000E4CF05F0E4CF04F0E4CF03F0E4CF02F037
:104FE000E4CF01F0E4CF00F0E4CFD9FF1200D9CF35
:104FF000E5FFE1CFD9FF00C0E5FF01C0E5FF02C03A
:10500000E5FF03C0E5FF04C0E5FF020EDBCF00F0C3
:10501000030EDBCF01F0040EDBCF02F00050070FD0
:10502000036E000E0120046E000E0220E56E045097
:10503000E56E0350E56EABEC2DF0030EE12600505B
:10504000230F036E000E0120046E000E0220E56E99
:105050000450E56E0350E56EDAEC29F0030EE1260C
:105060000050330F036E000E0120046E000E02206C
:10507000E56E0450E56E0350E56EC0EC28F0030EBB
:10508000E126440E0026000E012202220250E56EA7
:105090000150E56E0050E56EC0EC28F0030EE126ED
:1050A000E4CF04F0E4CF03F0E4CF02F0E4CF01F06A
:1050B000E4CF00F0E4CFD9FF1200D9CFE5FFE1CF74
:1050C000D9FF00C0E5FF01C0E5FF02C0E5FF03C056
:1050D000E5FF04C0E5FF05C0E5FF06C0E5FF020EE1
:1050E000DBCF00F0030EDBCF01F0040EDBCF02F0CC
:1050F000050EDBCF03F0060EDBCF04F0070EDBCF8F
:1051000005F0080EDBCF06F0D88003AED89015E38B
:1051100006500A0A12E104C0E9FF05C0EAFF2D0E9D
:10512000EF6E044A052A031E021E011E006C05E1F3
:10513000012A03E1022AD8B4032A0650E56E05507D
:10514000E56E0450E56E0350E56E0250E56E0150C9
:10515000E56E0050E56EFDEC1BF0070EE126E4CF96
:1051600006F0E4CF05F0E4CF04F0E4CF03F0E4CFA1
:1051700002F0E4CF01F0E4CF00F0E4CFD9FF120059
:10518000D9CFE5FFE1CFD9FF00C0E5FF01C0E5FFC2
:1051900002C0E5FF03C0E5FF04C0E5FF020EDBCF60
:1051A00000F0030EDBCF01F0040EDBCF02F0025063
:1051B000E56E0150E56E0050E56EABEC2DF0030E90
:1051C000E1260050010F036E000E0120046E000E58
:1051D0000220E56E0450E56E0350E56EABEC2DF059
:1051E000030EE1260050020F036E000E0120046E34
:1051F000000E0220E56E0450E56E0350E56EABEC48
:105200002DF0030EE1260F0E0026000E01220222D1
:105210000250E56E0150E56E0050E56E26EC2BF075
:10522000030EE126E4CF04F0E4CF03F0E4CF02F074
:10523000E4CF01F0E4CF00F0E4CFD9FF1200D9CFE2
:10524000E5FFE1CFD9FF00C0E5FF01C0E5FF02C0E7
:10525000E5FF03C0E5FF04C0E5FF05C0E5FF020E62
:10526000DBCF00F0030EDBCF01F0040EDBCF02F04A
:1052700000500B0F036E000E0120046E000E022082
:10528000E56AF46AF66AF76A03C0E9FF04C0F3FF4F
:1052900037EC33F00050070F036E000E0120046E50
:1052A000000E0220056E030E0026000E01220222CF
:1052B000E56AF46AF66AF76A00C0E9FF01C0F3FF25
:1052C000025037EC33F0E56AF46AF66AF76A03C015
:1052D000E9FF04C0F3FF055037EC33F0E4CF05F0ED
:1052E000E4CF04F0E4CF03F0E4CF02F0E4CF01F028
:1052F000E4CF00F0E4CFD9FF1200D9CFE5FFE1CF32
:10530000D9FF00C0E5FF01C0E5FF02C0E5FF03C013
:10531000E5FF04C0E5FF05C0E5FF06C0E5FF020E9E
:10532000DBCF00F0030EDBCF01F0040EDBCF02F089
:10533000050EDBCF03F0046A056A0350800BE844D6
:10534000066E065011E10250022603360350015C3E
:1053500002E10250005C04E2D8900332023204D031
:10536000052A05C004F0E9D70350015C02E10250B0
:10537000005C04E30250005E0350015AD8900332EF
:10538000023204C005F004060550EEE101C0F3FF4F
:105390000050E4CF06F0E4CF05F0E4CF04F0E4CF12
:1053A00003F0E4CF02F0E4CF01F0E4CF00F0E4CF6B
:1053B000D9FF1200D9CFE5FFE1CFD9FF00C0E5FF4B
:1053C00001C0E5FF02C0E5FF03C0E5FF04C0E5FF43
:1053D000020EDBCF00F0030EDBCF01F0040EDBCFBB
:1053E00002F00050060F036E000E0120046E000E46
:1053F0000220E56E0450E56E0350E56E26EC2BF0BE
:10540000030EE12600500C0F036E000E0120046E07
:10541000000E0220E56E0450E56E0350E56E26ECAA
:105420002BF0030EE1260E0E0026000E01220222B2
:105430000250E56E0150E56E0050E56E26EC2BF053
:10544000030EE126E4CF04F0E4CF03F0E4CF02F052
:10545000E4CF01F0E4CF00F0E4CFD9FF1200D9CFC0
:10546000E5FFE1CFD9FF00C0E5FF01C0E5FF02C0C5
:10547000E5FF03C0E5FF04C0E5FF020EDBCF00F04F
:10548000030EDBCF01F0040EDBCF02F0E56AF46A15
:1054900000C0E9FF01C0F3FF025092EC33F000506E
:1054A000020F036E000E0120046E000E0220E56A5A
:1054B000F46AF66AF76A03C0E9FF04C0F3FF37EC49
:1054C00033F0080E0026000E01220222E56AF46A7B
:1054D000F66AF76A00C0E9FF01C0F3FF025037EC3B
:1054E00033F0E4CF04F0E4CF03F0E4CF02F0E4CFF4
:1054F00001F0E4CF00F0E4CFD9FF120025642025AD
:10550000640A0000D8CFE5FFE0CFE5FFE56EF3CFFA
:10551000E5FFF4CFE5FFE9CFE5FFEACFE5FFFACFFE
:10552000E5FFFBCFE5FF00C0E5FF01C0E5FF04019B
:105530003D5104017C6F04013E5104017D6FD65042
:105540007A6FD7507B6FF2A417D03DC400F03EC4F1
:1055500001F00050010F04013D6F000E01203E6F6D
:10556000F2943D5104017C6F04013E5104017D6FB2
:10557000D6507A6FD7507B6FA8EC1DF0E4CF01F0C6
:10558000E4CF00F0E4CFFBFFE4CFFAFFE4CFEAFF83
:10559000E4CFE9FFE4CFF4FFE4CFF3FFE450E4CF3E
:1055A000E0FFE4CFD8FF100000C0E5FF01C0E5FF39
:1055B00002C0E5FF03C0E5FFCEC300F0016AD9C316
:1055C00002F0036A0250005E0350015AE56A800E41
:1055D000E56E0150E56E0050E56EDFEC25F0006EE3
:1055E000040EE1260006D9C301F0430E1AEC30F098
:1055F000200E1AEC30F0005020E0600E0124026E04
:10560000036A000E032202C0E9FF03C0EAFFEFCFE6
:1056100002F0E56A0250E56E000EE56E670EE56E7B
:10562000040EE56E6BEC2DF0050EE126012A01500B
:10563000800A01E1016A0006DED7E4CF03F0E4CF7F
:1056400002F0E4CF01F0E4CF00F01200D9CFE5FF83
:10565000E1CFD9FF00C0E5FF01C0E5FF02C0E5FFD3
:1056600003C0E5FF04C0E5FF020EDBCF00F0030E30
:10567000DBCF01F0040EDBCF02F00301C85111E1D2
:10568000B5EC2FF0036EF3CF04F003C0E5FF04C0C8
:10569000F4FF00C0E9FF01C0F3FF025092EC33F0C9
:1056A00016D00301C851010A12E100C0E9FF01C090
:1056B000F3FF0250C1EC32F0006EF3CF01F0015065
:1056C000E56E0050E56EEAEC2DF0E652E652E4CFCE
:1056D00004F0E4CF03F0E4CF02F0E4CF01F0E4CF34
:1056E00000F0E4CFD9FF1200DA0EF66E670EF76E07
:1056F000000EF86E0900F550056E0900F550066EB3
:1057000004E1056702D0C1EF2BF00900F550006EEF
:105710000900F550016E0900F550026E09000900FC
:10572000F550E96E0900F550EA6E0900090009001C
:10573000F550036E0900F550046E09000900F6CF1C
:1057400007F0F7CF08F0F8CF09F000C0F6FF01C06E
:10575000F7FF02C0F8FF035002E1045007E0090020
:10576000F550EE6E0306F8E20406F9D707C0F6FF1F
:1057700008C0F7FF09C0F8FF050601E2060680EF42
:105780002BF0120001C0E5FF02C0E5FF03C0E5FFFA
:10579000F4EC33F04AEC30F0F3CF01F0F4CF02F048
:1057A000E9CF03F0880F0F01336F130E0120346F20
:1057B000000E0220356F000E0320366FE2EC23F05E
:1057C0008A98899C8B849398929C949489968994C6
:1057D0008988929692949298899289908A8A9292D4
:1057E0009290939A8A98899C8B849398929C949493
:1057F0008A96899E8B809396929E94900401396B31
:10580000B16AB19AB182A282B190A192A082E4CF92
:1058100003F0E4CF02F0E4CF01F01200D9CFE5FFAE
:10582000E1CFD9FF00C0E5FF01C0E5FF02C0E5FF01
:1058300003C0E5FF04C0E5FF020EDBCF00F0003837
:10584000E8441F0B016E026ABD0E0126030E022200
:1058500001C0E9FF02C0EAFFEFCF03F0070E001618
:10586000010E046E00500DE006E6E86CD890043698
:10587000010FFDE306D0D89004BED8800432010F9A
:10588000FBE3041C006E0350001601C0E9FF02C0D8
:10589000EAFF00C0EFFFE4CF04F0E4CF03F0E4CF71
:1058A00002F0E4CF01F0E4CF00F0E4CFD9FF120022
:1058B000D9CFE5FFE1CFD9FF00C0E5FF01C0E5FF8B
:1058C00002C0E5FF03C0E5FF04C0E5FF05C0E5FF3A
:1058D000020EDBCF00F00050010A22E1016A015004
:1058E000020DF450036EF3CF02F0B30E0224046EE7
:1058F000040E0320056E04C0E9FF05C0EAFFEE6850
:105900007F0EEF6ED30E0226040E032202C0E9FFC3
:1059100003C0EAFFEE6AEF6A012A100E015CDFE3C2
:1059200000C045F4E4CF05F0E4CF04F0E4CF03F089
:10593000E4CF02F0E4CF01F0E4CF00F0E4CFD9FFF0
:10594000120000C0E5FF01C0E5FF02C0E5FF03C093
:10595000E5FF0AEC20F02BEC2DF04AEC30F0006E65
:10596000F3CF01F0F4CF02F0E9CF03F00F01335190
:10597000005E3451015A3551025A3651035A039E82
:105980003F0E035C08E1FF0E025C05E1FF0E015CC7
:1059900002E1FF0E005C14E24AEC30F0F3CF01F0BC
:1059A000F4CF02F0E9CF03F0880F0F01336F130E2D
:1059B0000120346F000E0220356F000E0320366F79
:1059C000E4CF03F0E4CF02F0E4CF01F0E4CF00F045
:1059D000120000C0E5FF01C0E5FF02C0E5FF9EEC3C
:1059E00030F0006E9EEC30F0016ED00E00260A0EF4
:1059F000005C05E30050026EF90E0224006ED00E2A
:105A000001260A0E015C05E30150026EF90E022424
:105A1000016E080E005C03E2100E015CD8B014D0D9
:105A20000038F00B0124006E016A9EEC2EF0026E2D
:105A3000025002E0010E016E0150010A05E0005023
:105A4000E56E37EC32F0E652E4CF02F0E4CF01F03D
:105A5000E4CF00F0120000C0E5FF01C0E5FF040143
:105A6000395134E104013C51020DF450016EF3CF81
:105A700000F0810E0026040E012200C0E9FF01C0E3
:105A8000EAFFEECF00F0EFCF01F00050011018E078
:105A900000C03AF401C03BF43CC4C7F3D8EC2EF08C
:105AA0003C51020DF450016EF3CF00F0810E002640
:105AB000040E012200C0E9FF01C0EAFFEE6AEF6AAE
:105AC00004013C2B040E3C5DD8B03C6BE4CF01F0EC
:105AD000E4CF00F01200D9CFE5FFE1CFD9FF00C03D
